{"contracts/LandRegistry.sol":{"LandRegistry":{"abi":[{"inputs":[],"stateMutability":"nonpayable","type":"constructor"},{"anonymous":false,"inputs":[{"indexed":false,"internalType":"string","name":"parcelId","type":"string"},{"indexed":false,"internalType":"address","name":"from","type":"address"},{"indexed":false,"internalType":"address","name":"to","type":"address"}],"name":"OwnershipTransferred","type":"event"},{"anonymous":false,"inputs":[{"indexed":false,"internalType":"string","name":"parcelId","type":"string"},{"indexed":false,"internalType":"address","name":"owner","type":"address"},{"indexed":false,"internalType":"string","name":"ipfsHash","type":"string"}],"name":"PropertyRegistered","type":"event"},{"anonymous":false,"inputs":[{"indexed":false,"internalType":"string","name":"parcelId","type":"string"},{"indexed":false,"internalType":"enum LandRegistry.PropertyStatus","name":"status","type":"uint8"}],"name":"PropertyStatusChanged","type":"event"},{"anonymous":false,"inputs":[{"indexed":false,"internalType":"string","name":"parcelId","type":"string"},{"indexed":false,"internalType":"string","name":"verdictIpfsHash","type":"string"}],"name":"VerdictRecorded","type":"event"},{"inputs":[],"name":"admin","outputs":[{"internalType":"address","name":"","type":"address"}],"stateMutability":"view","type":"function"},{"inputs":[{"internalType":"address","name":"_newAdmin","type":"address"}],"name":"changeAdmin","outputs":[],"stateMutability":"nonpayable","type":"function"},{"inputs":[{"internalType":"string","name":"parcelId","type":"string"}],"name":"disputeProperty","outputs":[],"stateMutability":"nonpayable","type":"function"},{"inputs":[{"internalType":"string","name":"parcelId","type":"string"}],"name":"freezeProperty","outputs":[],"stateMutability":"nonpayable","type":"function"},{"inputs":[{"internalType":"string","name":"parcelId","type":"string"}],"name":"litigateProperty","outputs":[],"stateMutability":"nonpayable","type":"function"},{"inputs":[{"internalType":"address","name":"","type":"address"},{"internalType":"uint256","name":"","type":"uint256"}],"name":"ownerProperties","outputs":[{"internalType":"string","name":"","type":"string"}],"stateMutability":"view","type":"function"},{"inputs":[{"internalType":"string","name":"","type":"string"}],"name":"properties","outputs":[{"internalType":"string","name":"parcelId","type":"string"},{"internalType":"string","name":"ipfsHash","type":"string"},{"internalType":"address","name":"owner","type":"address"},{"internalType":"uint256","name":"registeredAt","type":"uint256"},{"internalType":"bool","name":"active","type":"bool"}],"stateMutability":"view","type":"function"},{"inputs":[{"internalType":"string","name":"","type":"string"}],"name":"propertyStatus","outputs":[{"internalType":"enum LandRegistry.PropertyStatus","name":"","type":"uint8"}],"stateMutability":"view","type":"function"},{"inputs":[{"internalType":"string","name":"","type":"string"}],"name":"propertyVerdicts","outputs":[{"internalType":"string","name":"","type":"string"}],"stateMutability":"view","type":"function"},{"inputs":[{"internalType":"string","name":"parcelId","type":"string"},{"internalType":"string","name":"verdictIpfsHash","type":"string"}],"name":"recordVerdict","outputs":[],"stateMutability":"nonpayable","type":"function"},{"inputs":[{"internalType":"string","name":"parcelId","type":"string"},{"internalType":"string","name":"ipfsHash","type":"string"}],"name":"registerProperty","outputs":[],"stateMutability":"nonpayable","type":"function"},{"inputs":[{"internalType":"string","name":"parcelId","type":"string"},{"internalType":"address","name":"newOwner","type":"address"}],"name":"transferOwnership","outputs":[],"stateMutability":"nonpayable","type":"function"},{"inputs":[{"internalType":"string","name":"parcelId","type":"string"}],"name":"unfreezeProperty","outputs":[],"stateMutability":"nonpayable","type":"function"},{"inputs":[{"internalType":"string","name":"parcelId","type":"string"},{"internalType":"address","name":"claimedOwner","type":"address"}],"name":"verifyOwner","outputs":[{"internalType":"bool","name":"","type":"bool"}],"stateMutability":"view","type":"function"}],"evm":{"bytecode":{"linkReferences":{},"object":"608060405234801561000f575f80fd5b50600480546001600160a01b031916331790556113048061002f5f395ff3fe608060405234801561000f575f80fd5b50600436106100e5575f3560e01c80638f283970116100885780639facb0d8116100635780639facb0d8146101f8578063a0ef33cb1461021b578063c0e793c21461022e578063f851a44014610241575f80fd5b80638f283970146101a15780638f48bd5b146101b45780639be8f2a6146101d4575f80fd5b80633541d13a116100c35780633541d13a146101245780633f0a3cac146101375780634b7fb8591461017b5780636813ab251461018e575f80fd5b80630a3314d3146100e95780631b0f8ea8146100fe5780631d7abe1614610111575b5f80fd5b6100fc6100f7366004610e01565b61026c565b005b6100fc61010c366004610e3b565b61037a565b6100fc61011f366004610e01565b610538565b6100fc610132366004610e01565b610632565b610165610145366004610e01565b805160208183018101805160028252928201919093012091525460ff1681565b6040516101729190610ecf565b60405180910390f35b6100fc610189366004610e3b565b61072d565b6100fc61019c366004610e01565b6107f3565b6100fc6101af366004610ef8565b6108ee565b6101c76101c2366004610f18565b61093a565b6040516101729190610f8d565b6101e76101e2366004610e01565b6109eb565b604051610172959493929190610f9f565b61020b610206366004610fec565b610b3e565b6040519015158152602001610172565b6101c7610229366004610e01565b610b7e565b6100fc61023c366004610fec565b610ba2565b600454610254906001600160a01b031681565b6040516001600160a01b039091168152602001610172565b6004546001600160a01b0316331461029f5760405162461bcd60e51b815260040161029690611037565b60405180910390fd5b5f80826040516102af919061105b565b908152602001604051809103902060030154116102de5760405162461bcd60e51b815260040161029690611076565b60015f826040516102ef919061105b565b908152604051908190036020018120600401805492151560ff19909316929092179091555f9060029061032390849061105b565b908152604051908190036020019020805460ff1916600183600381111561034c5761034c610e9b565b02179055505f805160206112af833981519152815f60405161036f9291906110ad565b60405180910390a150565b5f82604051610389919061105b565b9081526020016040518091039020600301545f146103de5760405162461bcd60e51b8152602060048201526012602482015271105b1c9958591e481c9959da5cdd195c995960721b6044820152606401610296565b6040805160a0810182528381526020810183905233818301524260608201526001608082015290515f9061041390859061105b565b908152604051908190036020019020815181906104309082611152565b50602082015160018201906104459082611152565b50604082810151600283810180546001600160a01b0319166001600160a01b0390931692909217909155606084015160038401556080909301516004909201805460ff191692151592909217909155515f91906104a390859061105b565b908152604051908190036020019020805460ff191660018360038111156104cc576104cc610e9b565b0217905550335f9081526001602081815260408320805492830181558352909120016104f88382611152565b507ff6d395ca84bfb4a29eac318d6f1eec71962a2a3a5d848822383ab08bf67c067c82338360405161052c93929190611212565b60405180910390a15050565b6004546001600160a01b031633146105625760405162461bcd60e51b815260040161029690611037565b5f8082604051610572919061105b565b908152602001604051809103902060030154116105a15760405162461bcd60e51b815260040161029690611076565b5f80826040516105b1919061105b565b908152604051908190036020018120600401805492151560ff199093169290921790915560029081906105e590849061105b565b908152604051908190036020019020805460ff1916600183600381111561060e5761060e610e9b565b02179055505f805160206112af83398151915281600260405161036f9291906110ad565b6004546001600160a01b0316331461065c5760405162461bcd60e51b815260040161029690611037565b5f808260405161066c919061105b565b9081526020016040518091039020600301541161069b5760405162461bcd60e51b815260040161029690611076565b5f80826040516106ab919061105b565b908152604051908190036020018120600401805492151560ff19909316929092179091556003906002906106e090849061105b565b908152604051908190036020019020805460ff1916600183600381111561070957610709610e9b565b02179055505f805160206112af83398151915281600360405161036f9291906110ad565b6004546001600160a01b031633146107575760405162461bcd60e51b815260040161029690611037565b5f8083604051610767919061105b565b908152602001604051809103902060030154116107965760405162461bcd60e51b815260040161029690611076565b806003836040516107a7919061105b565b908152602001604051809103902090816107c19190611152565b507f9f79b9c246de389cfa6988782fcb88f6961a3d779b1d1efbf3810788f16f9b0d828260405161052c92919061124f565b6004546001600160a01b0316331461081d5760405162461bcd60e51b815260040161029690611037565b5f808260405161082d919061105b565b9081526020016040518091039020600301541161085c5760405162461bcd60e51b815260040161029690611076565b5f808260405161086c919061105b565b908152604051908190036020018120600401805492151560ff19909316929092179091556001906002906108a190849061105b565b908152604051908190036020019020805460ff191660018360038111156108ca576108ca610e9b565b02179055505f805160206112af83398151915281600160405161036f9291906110ad565b6004546001600160a01b031633146109185760405162461bcd60e51b815260040161029690611037565b600480546001600160a01b0319166001600160a01b0392909216919091179055565b6001602052815f5260405f208181548110610953575f80fd5b905f5260205f20015f9150915050805461096c906110ce565b80601f0160208091040260200160405190810160405280929190818152602001828054610998906110ce565b80156109e35780601f106109ba576101008083540402835291602001916109e3565b820191905f5260205f20905b8154815290600101906020018083116109c657829003601f168201915b505050505081565b80516020818301810180515f82529282019190930120915280548190610a10906110ce565b80601f0160208091040260200160405190810160405280929190818152602001828054610a3c906110ce565b8015610a875780601f10610a5e57610100808354040283529160200191610a87565b820191905f5260205f20905b815481529060010190602001808311610a6a57829003601f168201915b505050505090806001018054610a9c906110ce565b80601f0160208091040260200160405190810160405280929190818152602001828054610ac8906110ce565b8015610b135780601f10610aea57610100808354040283529160200191610b13565b820191905f5260205f20905b815481529060010190602001808311610af657829003601f168201915b505050506002830154600384015460049094015492936001600160a01b039091169290915060ff1685565b5f816001600160a01b03165f84604051610b58919061105b565b908152604051908190036020019020600201546001600160a01b03161490505b92915050565b80516020818301810180516003825292820191909301209152805461096c906110ce565b5f8083604051610bb2919061105b565b90815260405190819003602001902060028101549091506001600160a01b03163314610c0c5760405162461bcd60e51b81526020600482015260096024820152682737ba1037bbb732b960b91b6044820152606401610296565b600481015460ff16610c565760405162461bcd60e51b815260206004820152601360248201527250726f7065727479206e6f742061637469766560681b6044820152606401610296565b5f600284604051610c67919061105b565b9081526040519081900360200190205460ff166003811115610c8b57610c8b610e9b565b14610cd85760405162461bcd60e51b815260206004820152601d60248201527f50726f706572747920737461747573206973206e6f74204143544956450000006044820152606401610296565b6002810180546001600160a01b038481166001600160a01b0319831681179093555f928352600160208181526040852080549283018155855290932091169101610d228582611152565b507f6840904f5b31827f74e1497360da245f56e530c8c3de3163a2d31f11493273c6848285604051610d569392919061127c565b60405180910390a150505050565b634e487b7160e01b5f52604160045260245ffd5b5f82601f830112610d87575f80fd5b813567ffffffffffffffff80821115610da257610da2610d64565b604051601f8301601f19908116603f01168101908282118183101715610dca57610dca610d64565b81604052838152866020858801011115610de2575f80fd5b836020870160208301375f602085830101528094505050505092915050565b5f60208284031215610e11575f80fd5b813567ffffffffffffffff811115610e27575f80fd5b610e3384828501610d78565b949350505050565b5f8060408385031215610e4c575f80fd5b823567ffffffffffffffff80821115610e63575f80fd5b610e6f86838701610d78565b93506020850135915080821115610e84575f80fd5b50610e9185828601610d78565b9150509250929050565b634e487b7160e01b5f52602160045260245ffd5b60048110610ecb57634e487b7160e01b5f52602160045260245ffd5b9052565b60208101610b788284610eaf565b80356001600160a01b0381168114610ef3575f80fd5b919050565b5f60208284031215610f08575f80fd5b610f1182610edd565b9392505050565b5f8060408385031215610f29575f80fd5b610f3283610edd565b946020939093013593505050565b5f5b83811015610f5a578181015183820152602001610f42565b50505f910152565b5f8151808452610f79816020860160208601610f40565b601f01601f19169290920160200192915050565b602081525f610f116020830184610f62565b60a081525f610fb160a0830188610f62565b8281036020840152610fc38188610f62565b6001600160a01b0396909616604084015250506060810192909252151560809091015292915050565b5f8060408385031215610ffd575f80fd5b823567ffffffffffffffff811115611013575f80fd5b61101f85828601610d78565b92505061102e60208401610edd565b90509250929050565b6020808252600a908201526927b7363c9030b236b4b760b11b604082015260600190565b5f825161106c818460208701610f40565b9190910192915050565b60208082526017908201527f50726f7065727479206e6f742072656769737465726564000000000000000000604082015260600190565b604081525f6110bf6040830185610f62565b9050610f116020830184610eaf565b600181811c908216806110e257607f821691505b60208210810361110057634e487b7160e01b5f52602260045260245ffd5b50919050565b601f82111561114d57805f5260205f20601f840160051c8101602085101561112b5750805b601f840160051c820191505b8181101561114a575f8155600101611137565b50505b505050565b815167ffffffffffffffff81111561116c5761116c610d64565b6111808161117a84546110ce565b84611106565b602080601f8311600181146111b3575f841561119c5750858301515b5f19600386901b1c1916600185901b17855561120a565b5f85815260208120601f198616915b828110156111e1578886015182559484019460019091019084016111c2565b50858210156111fe57878501515f19600388901b60f8161c191681555b505060018460011b0185555b505050505050565b606081525f6112246060830186610f62565b6001600160a01b038516602084015282810360408401526112458185610f62565b9695505050505050565b604081525f6112616040830185610f62565b82810360208401526112738185610f62565b95945050505050565b606081525f61128e6060830186610f62565b6001600160a01b039485166020840152929093166040909101529291505056fee2066eed6a21fe010dcfb0fe900bb231316178ab42b606888039bea06e2272e8a26469706673582212204df15cf073157138b9cf27eee2cc08a91527c81662bb7d0bd840e09c27d0b41064736f6c63430008180033","opcodes":"PUSH1 0x80 PUSH1 0x40 MSTORE CALLVALUE DUP1 ISZERO PUSH2 0xF JUMPI PUSH0 DUP1 REVERT JUMPDEST POP PUSH1 0x4 DUP1 SLOAD PUSH1 0x1 PUSH1 0x1 PUSH1 0xA0 SHL SUB NOT AND CALLER OR SWAP1 SSTORE PUSH2 0x1304 DUP1 PUSH2 0x2F PUSH0 CODECOPY PUSH0 RETURN INVALID PUSH1 0x80 PUSH1 0x40 MSTORE CALLVALUE DUP1 ISZERO PUSH2 0xF JUMPI PUSH0 DUP1 REVERT JUMPDEST POP PUSH1 0x4 CALLDATASIZE LT PUSH2 0xE5 JUMPI PUSH0 CALLDATALOAD PUSH1 0xE0 SHR DUP1 PUSH4 0x8F283970 GT PUSH2 0x88 JUMPI DUP1 PUSH4 0x9FACB0D8 GT PUSH2 0x63 JUMPI DUP1 PUSH4 0x9FACB0D8 EQ PUSH2 0x1F8 JUMPI DUP1 PUSH4 0xA0EF33CB EQ PUSH2 0x21B JUMPI DUP1 PUSH4 0xC0E793C2 EQ PUSH2 0x22E JUMPI DUP1 PUSH4 0xF851A440 EQ PUSH2 0x241 JUMPI PUSH0 DUP1 REVERT JUMPDEST DUP1 PUSH4 0x8F283970 EQ PUSH2 0x1A1 JUMPI DUP1 PUSH4 0x8F48BD5B EQ PUSH2 0x1B4 JUMPI DUP1 PUSH4 0x9BE8F2A6 EQ PUSH2 0x1D4 JUMPI PUSH0 DUP1 REVERT JUMPDEST DUP1 PUSH4 0x3541D13A GT PUSH2 0xC3 JUMPI DUP1 PUSH4 0x3541D13A EQ PUSH2 0x124 JUMPI DUP1 PUSH4 0x3F0A3CAC EQ PUSH2 0x137 JUMPI DUP1 PUSH4 0x4B7FB859 EQ PUSH2 0x17B JUMPI DUP1 PUSH4 0x6813AB25 EQ PUSH2 0x18E JUMPI PUSH0 DUP1 REVERT JUMPDEST DUP1 PUSH4 0xA3314D3 EQ PUSH2 0xE9 JUMPI DUP1 PUSH4 0x1B0F8EA8 EQ PUSH2 0xFE JUMPI DUP1 PUSH4 0x1D7ABE16 EQ PUSH2 0x111 JUMPI JUMPDEST PUSH0 DUP1 REVERT JUMPDEST PUSH2 0xFC PUSH2 0xF7 CALLDATASIZE PUSH1 0x4 PUSH2 0xE01 JUMP JUMPDEST PUSH2 0x26C JUMP JUMPDEST STOP JUMPDEST PUSH2 0xFC PUSH2 0x10C CALLDATASIZE PUSH1 0x4 PUSH2 0xE3B JUMP JUMPDEST PUSH2 0x37A JUMP JUMPDEST PUSH2 0xFC PUSH2 0x11F CALLDATASIZE PUSH1 0x4 PUSH2 0xE01 JUMP JUMPDEST PUSH2 0x538 JUMP JUMPDEST PUSH2 0xFC PUSH2 0x132 CALLDATASIZE PUSH1 0x4 PUSH2 0xE01 JUMP JUMPDEST PUSH2 0x632 JUMP JUMPDEST PUSH2 0x165 PUSH2 0x145 CALLDATASIZE PUSH1 0x4 PUSH2 0xE01 JUMP JUMPDEST DUP1 MLOAD PUSH1 0x20 DUP2 DUP4 ADD DUP2 ADD DUP1 MLOAD PUSH1 0x2 DUP3 MSTORE SWAP3 DUP3 ADD SWAP2 SWAP1 SWAP4 ADD KECCAK256 SWAP2 MSTORE SLOAD PUSH1 0xFF AND DUP2 JUMP JUMPDEST PUSH1 0x40 MLOAD PUSH2 0x172 SWAP2 SWAP1 PUSH2 0xECF JUMP JUMPDEST PUSH1 0x40 MLOAD DUP1 SWAP2 SUB SWAP1 RETURN JUMPDEST PUSH2 0xFC PUSH2 0x189 CALLDATASIZE PUSH1 0x4 PUSH2 0xE3B JUMP JUMPDEST PUSH2 0x72D JUMP JUMPDEST PUSH2 0xFC PUSH2 0x19C CALLDATASIZE PUSH1 0x4 PUSH2 0xE01 JUMP JUMPDEST PUSH2 0x7F3 JUMP JUMPDEST PUSH2 0xFC PUSH2 0x1AF CALLDATASIZE PUSH1 0x4 PUSH2 0xEF8 JUMP JUMPDEST PUSH2 0x8EE JUMP JUMPDEST PUSH2 0x1C7 PUSH2 0x1C2 CALLDATASIZE PUSH1 0x4 PUSH2 0xF18 JUMP JUMPDEST PUSH2 0x93A JUMP JUMPDEST PUSH1 0x40 MLOAD PUSH2 0x172 SWAP2 SWAP1 PUSH2 0xF8D JUMP JUMPDEST PUSH2 0x1E7 PUSH2 0x1E2 CALLDATASIZE PUSH1 0x4 PUSH2 0xE01 JUMP JUMPDEST PUSH2 0x9EB JUMP JUMPDEST PUSH1 0x40 MLOAD PUSH2 0x172 SWAP6 SWAP5 SWAP4 SWAP3 SWAP2 SWAP1 PUSH2 0xF9F JUMP JUMPDEST PUSH2 0x20B PUSH2 0x206 CALLDATASIZE PUSH1 0x4 PUSH2 0xFEC JUMP JUMPDEST PUSH2 0xB3E JUMP JUMPDEST PUSH1 0x40 MLOAD SWAP1 ISZERO ISZERO DUP2 MSTORE PUSH1 0x20 ADD PUSH2 0x172 JUMP JUMPDEST PUSH2 0x1C7 PUSH2 0x229 CALLDATASIZE PUSH1 0x4 PUSH2 0xE01 JUMP JUMPDEST PUSH2 0xB7E JUMP JUMPDEST PUSH2 0xFC PUSH2 0x23C CALLDATASIZE PUSH1 0x4 PUSH2 0xFEC JUMP JUMPDEST PUSH2 0xBA2 JUMP JUMPDEST PUSH1 0x4 SLOAD PUSH2 0x254 SWAP1 PUSH1 0x1 PUSH1 0x1 PUSH1 0xA0 SHL SUB AND DUP2 JUMP JUMPDEST PUSH1 0x40 MLOAD PUSH1 0x1 PUSH1 0x1 PUSH1 0xA0 SHL SUB SWAP1 SWAP2 AND DUP2 MSTORE PUSH1 0x20 ADD PUSH2 0x172 JUMP JUMPDEST PUSH1 0x4 SLOAD PUSH1 0x1 PUSH1 0x1 PUSH1 0xA0 SHL SUB AND CALLER EQ PUSH2 0x29F JUMPI PUSH1 0x40 MLOAD PUSH3 0x461BCD PUSH1 0xE5 SHL DUP2 MSTORE PUSH1 0x4 ADD PUSH2 0x296 SWAP1 PUSH2 0x1037 JUMP JUMPDEST PUSH1 0x40 MLOAD DUP1 SWAP2 SUB SWAP1 REVERT JUMPDEST PUSH0 DUP1 DUP3 PUSH1 0x40 MLOAD PUSH2 0x2AF SWAP2 SWAP1 PUSH2 0x105B JUMP JUMPDEST SWAP1 DUP2 MSTORE PUSH1 0x20 ADD PUSH1 0x40 MLOAD DUP1 SWAP2 SUB SWAP1 KECCAK256 PUSH1 0x3 ADD SLOAD GT PUSH2 0x2DE JUMPI PUSH1 0x40 MLOAD PUSH3 0x461BCD PUSH1 0xE5 SHL DUP2 MSTORE PUSH1 0x4 ADD PUSH2 0x296 SWAP1 PUSH2 0x1076 JUMP JUMPDEST PUSH1 0x1 PUSH0 DUP3 PUSH1 0x40 MLOAD PUSH2 0x2EF SWAP2 SWAP1 PUSH2 0x105B JUMP JUMPDEST SWAP1 DUP2 MSTORE PUSH1 0x40 MLOAD SWAP1 DUP2 SWAP1 SUB PUSH1 0x20 ADD DUP2 KECCAK256 PUSH1 0x4 ADD DUP1 SLOAD SWAP3 ISZERO ISZERO PUSH1 0xFF NOT SWAP1 SWAP4 AND SWAP3 SWAP1 SWAP3 OR SWAP1 SWAP2 SSTORE PUSH0 SWAP1 PUSH1 0x2 SWAP1 PUSH2 0x323 SWAP1 DUP5 SWAP1 PUSH2 0x105B JUMP JUMPDEST SWAP1 DUP2 MSTORE PUSH1 0x40 MLOAD SWAP1 DUP2 SWAP1 SUB PUSH1 0x20 ADD SWAP1 KECCAK256 DUP1 SLOAD PUSH1 0xFF NOT AND PUSH1 0x1 DUP4 PUSH1 0x3 DUP2 GT ISZERO PUSH2 0x34C JUMPI PUSH2 0x34C PUSH2 0xE9B JUMP JUMPDEST MUL OR SWAP1 SSTORE POP PUSH0 DUP1 MLOAD PUSH1 0x20 PUSH2 0x12AF DUP4 CODECOPY DUP2 MLOAD SWAP2 MSTORE DUP2 PUSH0 PUSH1 0x40 MLOAD PUSH2 0x36F SWAP3 SWAP2 SWAP1 PUSH2 0x10AD JUMP JUMPDEST PUSH1 0x40 MLOAD DUP1 SWAP2 SUB SWAP1 LOG1 POP JUMP JUMPDEST PUSH0 DUP3 PUSH1 0x40 MLOAD PUSH2 0x389 SWAP2 SWAP1 PUSH2 0x105B JUMP JUMPDEST SWAP1 DUP2 MSTORE PUSH1 0x20 ADD PUSH1 0x40 MLOAD DUP1 SWAP2 SUB SWAP1 KECCAK256 PUSH1 0x3 ADD SLOAD PUSH0 EQ PUSH2 0x3DE JUMPI PUSH1 0x40 MLOAD PUSH3 0x461BCD PUSH1 0xE5 SHL DUP2 MSTORE PUSH1 0x20 PUSH1 0x4 DUP3 ADD MSTORE PUSH1 0x12 PUSH1 0x24 DUP3 ADD MSTORE PUSH18 0x105B1C9958591E481C9959DA5CDD195C9959 PUSH1 0x72 SHL PUSH1 0x44 DUP3 ADD MSTORE PUSH1 0x64 ADD PUSH2 0x296 JUMP JUMPDEST PUSH1 0x40 DUP1 MLOAD PUSH1 0xA0 DUP2 ADD DUP3 MSTORE DUP4 DUP2 MSTORE PUSH1 0x20 DUP2 ADD DUP4 SWAP1 MSTORE CALLER DUP2 DUP4 ADD MSTORE TIMESTAMP PUSH1 0x60 DUP3 ADD MSTORE PUSH1 0x1 PUSH1 0x80 DUP3 ADD MSTORE SWAP1 MLOAD PUSH0 SWAP1 PUSH2 0x413 SWAP1 DUP6 SWAP1 PUSH2 0x105B JUMP JUMPDEST SWAP1 DUP2 MSTORE PUSH1 0x40 MLOAD SWAP1 DUP2 SWAP1 SUB PUSH1 0x20 ADD SWAP1 KECCAK256 DUP2 MLOAD DUP2 SWAP1 PUSH2 0x430 SWAP1 DUP3 PUSH2 0x1152 JUMP JUMPDEST POP PUSH1 0x20 DUP3 ADD MLOAD PUSH1 0x1 DUP3 ADD SWAP1 PUSH2 0x445 SWAP1 DUP3 PUSH2 0x1152 JUMP JUMPDEST POP PUSH1 0x40 DUP3 DUP2 ADD MLOAD PUSH1 0x2 DUP4 DUP2 ADD DUP1 SLOAD PUSH1 0x1 PUSH1 0x1 PUSH1 0xA0 SHL SUB NOT AND PUSH1 0x1 PUSH1 0x1 PUSH1 0xA0 SHL SUB SWAP1 SWAP4 AND SWAP3 SWAP1 SWAP3 OR SWAP1 SWAP2 SSTORE PUSH1 0x60 DUP5 ADD MLOAD PUSH1 0x3 DUP5 ADD SSTORE PUSH1 0x80 SWAP1 SWAP4 ADD MLOAD PUSH1 0x4 SWAP1 SWAP3 ADD DUP1 SLOAD PUSH1 0xFF NOT AND SWAP3 ISZERO ISZERO SWAP3 SWAP1 SWAP3 OR SWAP1 SWAP2 SSTORE MLOAD PUSH0 SWAP2 SWAP1 PUSH2 0x4A3 SWAP1 DUP6 SWAP1 PUSH2 0x105B JUMP JUMPDEST SWAP1 DUP2 MSTORE PUSH1 0x40 MLOAD SWAP1 DUP2 SWAP1 SUB PUSH1 0x20 ADD SWAP1 KECCAK256 DUP1 SLOAD PUSH1 0xFF NOT AND PUSH1 0x1 DUP4 PUSH1 0x3 DUP2 GT ISZERO PUSH2 0x4CC JUMPI PUSH2 0x4CC PUSH2 0xE9B JUMP JUMPDEST MUL OR SWAP1 SSTORE POP CALLER PUSH0 SWAP1 DUP2 MSTORE PUSH1 0x1 PUSH1 0x20 DUP2 DUP2 MSTORE PUSH1 0x40 DUP4 KECCAK256 DUP1 SLOAD SWAP3 DUP4 ADD DUP2 SSTORE DUP4 MSTORE SWAP1 SWAP2 KECCAK256 ADD PUSH2 0x4F8 DUP4 DUP3 PUSH2 0x1152 JUMP JUMPDEST POP PUSH32 0xF6D395CA84BFB4A29EAC318D6F1EEC71962A2A3A5D848822383AB08BF67C067C DUP3 CALLER DUP4 PUSH1 0x40 MLOAD PUSH2 0x52C SWAP4 SWAP3 SWAP2 SWAP1 PUSH2 0x1212 JUMP JUMPDEST PUSH1 0x40 MLOAD DUP1 SWAP2 SUB SWAP1 LOG1 POP POP JUMP JUMPDEST PUSH1 0x4 SLOAD PUSH1 0x1 PUSH1 0x1 PUSH1 0xA0 SHL SUB AND CALLER EQ PUSH2 0x562 JUMPI PUSH1 0x40 MLOAD PUSH3 0x461BCD PUSH1 0xE5 SHL DUP2 MSTORE PUSH1 0x4 ADD PUSH2 0x296 SWAP1 PUSH2 0x1037 JUMP JUMPDEST PUSH0 DUP1 DUP3 PUSH1 0x40 MLOAD PUSH2 0x572 SWAP2 SWAP1 PUSH2 0x105B JUMP JUMPDEST SWAP1 DUP2 MSTORE PUSH1 0x20 ADD PUSH1 0x40 MLOAD DUP1 SWAP2 SUB SWAP1 KECCAK256 PUSH1 0x3 ADD SLOAD GT PUSH2 0x5A1 JUMPI PUSH1 0x40 MLOAD PUSH3 0x461BCD PUSH1 0xE5 SHL DUP2 MSTORE PUSH1 0x4 ADD PUSH2 0x296 SWAP1 PUSH2 0x1076 JUMP JUMPDEST PUSH0 DUP1 DUP3 PUSH1 0x40 MLOAD PUSH2 0x5B1 SWAP2 SWAP1 PUSH2 0x105B JUMP JUMPDEST SWAP1 DUP2 MSTORE PUSH1 0x40 MLOAD SWAP1 DUP2 SWAP1 SUB PUSH1 0x20 ADD DUP2 KECCAK256 PUSH1 0x4 ADD DUP1 SLOAD SWAP3 ISZERO ISZERO PUSH1 0xFF NOT SWAP1 SWAP4 AND SWAP3 SWAP1 SWAP3 OR SWAP1 SWAP2 SSTORE PUSH1 0x2 SWAP1 DUP2 SWAP1 PUSH2 0x5E5 SWAP1 DUP5 SWAP1 PUSH2 0x105B JUMP JUMPDEST SWAP1 DUP2 MSTORE PUSH1 0x40 MLOAD SWAP1 DUP2 SWAP1 SUB PUSH1 0x20 ADD SWAP1 KECCAK256 DUP1 SLOAD PUSH1 0xFF NOT AND PUSH1 0x1 DUP4 PUSH1 0x3 DUP2 GT ISZERO PUSH2 0x60E JUMPI PUSH2 0x60E PUSH2 0xE9B JUMP JUMPDEST MUL OR SWAP1 SSTORE POP PUSH0 DUP1 MLOAD PUSH1 0x20 PUSH2 0x12AF DUP4 CODECOPY DUP2 MLOAD SWAP2 MSTORE DUP2 PUSH1 0x2 PUSH1 0x40 MLOAD PUSH2 0x36F SWAP3 SWAP2 SWAP1 PUSH2 0x10AD JUMP JUMPDEST PUSH1 0x4 SLOAD PUSH1 0x1 PUSH1 0x1 PUSH1 0xA0 SHL SUB AND CALLER EQ PUSH2 0x65C JUMPI PUSH1 0x40 MLOAD PUSH3 0x461BCD PUSH1 0xE5 SHL DUP2 MSTORE PUSH1 0x4 ADD PUSH2 0x296 SWAP1 PUSH2 0x1037 JUMP JUMPDEST PUSH0 DUP1 DUP3 PUSH1 0x40 MLOAD PUSH2 0x66C SWAP2 SWAP1 PUSH2 0x105B JUMP JUMPDEST SWAP1 DUP2 MSTORE PUSH1 0x20 ADD PUSH1 0x40 MLOAD DUP1 SWAP2 SUB SWAP1 KECCAK256 PUSH1 0x3 ADD SLOAD GT PUSH2 0x69B JUMPI PUSH1 0x40 MLOAD PUSH3 0x461BCD PUSH1 0xE5 SHL DUP2 MSTORE PUSH1 0x4 ADD PUSH2 0x296 SWAP1 PUSH2 0x1076 JUMP JUMPDEST PUSH0 DUP1 DUP3 PUSH1 0x40 MLOAD PUSH2 0x6AB SWAP2 SWAP1 PUSH2 0x105B JUMP JUMPDEST SWAP1 DUP2 MSTORE PUSH1 0x40 MLOAD SWAP1 DUP2 SWAP1 SUB PUSH1 0x20 ADD DUP2 KECCAK256 PUSH1 0x4 ADD DUP1 SLOAD SWAP3 ISZERO ISZERO PUSH1 0xFF NOT SWAP1 SWAP4 AND SWAP3 SWAP1 SWAP3 OR SWAP1 SWAP2 SSTORE PUSH1 0x3 SWAP1 PUSH1 0x2 SWAP1 PUSH2 0x6E0 SWAP1 DUP5 SWAP1 PUSH2 0x105B JUMP JUMPDEST SWAP1 DUP2 MSTORE PUSH1 0x40 MLOAD SWAP1 DUP2 SWAP1 SUB PUSH1 0x20 ADD SWAP1 KECCAK256 DUP1 SLOAD PUSH1 0xFF NOT AND PUSH1 0x1 DUP4 PUSH1 0x3 DUP2 GT ISZERO PUSH2 0x709 JUMPI PUSH2 0x709 PUSH2 0xE9B JUMP JUMPDEST MUL OR SWAP1 SSTORE POP PUSH0 DUP1 MLOAD PUSH1 0x20 PUSH2 0x12AF DUP4 CODECOPY DUP2 MLOAD SWAP2 MSTORE DUP2 PUSH1 0x3 PUSH1 0x40 MLOAD PUSH2 0x36F SWAP3 SWAP2 SWAP1 PUSH2 0x10AD JUMP JUMPDEST PUSH1 0x4 SLOAD PUSH1 0x1 PUSH1 0x1 PUSH1 0xA0 SHL SUB AND CALLER EQ PUSH2 0x757 JUMPI PUSH1 0x40 MLOAD PUSH3 0x461BCD PUSH1 0xE5 SHL DUP2 MSTORE PUSH1 0x4 ADD PUSH2 0x296 SWAP1 PUSH2 0x1037 JUMP JUMPDEST PUSH0 DUP1 DUP4 PUSH1 0x40 MLOAD PUSH2 0x767 SWAP2 SWAP1 PUSH2 0x105B JUMP JUMPDEST SWAP1 DUP2 MSTORE PUSH1 0x20 ADD PUSH1 0x40 MLOAD DUP1 SWAP2 SUB SWAP1 KECCAK256 PUSH1 0x3 ADD SLOAD GT PUSH2 0x796 JUMPI PUSH1 0x40 MLOAD PUSH3 0x461BCD PUSH1 0xE5 SHL DUP2 MSTORE PUSH1 0x4 ADD PUSH2 0x296 SWAP1 PUSH2 0x1076 JUMP JUMPDEST DUP1 PUSH1 0x3 DUP4 PUSH1 0x40 MLOAD PUSH2 0x7A7 SWAP2 SWAP1 PUSH2 0x105B JUMP JUMPDEST SWAP1 DUP2 MSTORE PUSH1 0x20 ADD PUSH1 0x40 MLOAD DUP1 SWAP2 SUB SWAP1 KECCAK256 SWAP1 DUP2 PUSH2 0x7C1 SWAP2 SWAP1 PUSH2 0x1152 JUMP JUMPDEST POP PUSH32 0x9F79B9C246DE389CFA6988782FCB88F6961A3D779B1D1EFBF3810788F16F9B0D DUP3 DUP3 PUSH1 0x40 MLOAD PUSH2 0x52C SWAP3 SWAP2 SWAP1 PUSH2 0x124F JUMP JUMPDEST PUSH1 0x4 SLOAD PUSH1 0x1 PUSH1 0x1 PUSH1 0xA0 SHL SUB AND CALLER EQ PUSH2 0x81D JUMPI PUSH1 0x40 MLOAD PUSH3 0x461BCD PUSH1 0xE5 SHL DUP2 MSTORE PUSH1 0x4 ADD PUSH2 0x296 SWAP1 PUSH2 0x1037 JUMP JUMPDEST PUSH0 DUP1 DUP3 PUSH1 0x40 MLOAD PUSH2 0x82D SWAP2 SWAP1 PUSH2 0x105B JUMP JUMPDEST SWAP1 DUP2 MSTORE PUSH1 0x20 ADD PUSH1 0x40 MLOAD DUP1 SWAP2 SUB SWAP1 KECCAK256 PUSH1 0x3 ADD SLOAD GT PUSH2 0x85C JUMPI PUSH1 0x40 MLOAD PUSH3 0x461BCD PUSH1 0xE5 SHL DUP2 MSTORE PUSH1 0x4 ADD PUSH2 0x296 SWAP1 PUSH2 0x1076 JUMP JUMPDEST PUSH0 DUP1 DUP3 PUSH1 0x40 MLOAD PUSH2 0x86C SWAP2 SWAP1 PUSH2 0x105B JUMP JUMPDEST SWAP1 DUP2 MSTORE PUSH1 0x40 MLOAD SWAP1 DUP2 SWAP1 SUB PUSH1 0x20 ADD DUP2 KECCAK256 PUSH1 0x4 ADD DUP1 SLOAD SWAP3 ISZERO ISZERO PUSH1 0xFF NOT SWAP1 SWAP4 AND SWAP3 SWAP1 SWAP3 OR SWAP1 SWAP2 SSTORE PUSH1 0x1 SWAP1 PUSH1 0x2 SWAP1 PUSH2 0x8A1 SWAP1 DUP5 SWAP1 PUSH2 0x105B JUMP JUMPDEST SWAP1 DUP2 MSTORE PUSH1 0x40 MLOAD SWAP1 DUP2 SWAP1 SUB PUSH1 0x20 ADD SWAP1 KECCAK256 DUP1 SLOAD PUSH1 0xFF NOT AND PUSH1 0x1 DUP4 PUSH1 0x3 DUP2 GT ISZERO PUSH2 0x8CA JUMPI PUSH2 0x8CA PUSH2 0xE9B JUMP JUMPDEST MUL OR SWAP1 SSTORE POP PUSH0 DUP1 MLOAD PUSH1 0x20 PUSH2 0x12AF DUP4 CODECOPY DUP2 MLOAD SWAP2 MSTORE DUP2 PUSH1 0x1 PUSH1 0x40 MLOAD PUSH2 0x36F SWAP3 SWAP2 SWAP1 PUSH2 0x10AD JUMP JUMPDEST PUSH1 0x4 SLOAD PUSH1 0x1 PUSH1 0x1 PUSH1 0xA0 SHL SUB AND CALLER EQ PUSH2 0x918 JUMPI PUSH1 0x40 MLOAD PUSH3 0x461BCD PUSH1 0xE5 SHL DUP2 MSTORE PUSH1 0x4 ADD PUSH2 0x296 SWAP1 PUSH2 0x1037 JUMP JUMPDEST PUSH1 0x4 DUP1 SLOAD PUSH1 0x1 PUSH1 0x1 PUSH1 0xA0 SHL SUB NOT AND PUSH1 0x1 PUSH1 0x1 PUSH1 0xA0 SHL SUB SWAP3 SWAP1 SWAP3 AND SWAP2 SWAP1 SWAP2 OR SWAP1 SSTORE JUMP JUMPDEST PUSH1 0x1 PUSH1 0x20 MSTORE DUP2 PUSH0 MSTORE PUSH1 0x40 PUSH0 KECCAK256 DUP2 DUP2 SLOAD DUP2 LT PUSH2 0x953 JUMPI PUSH0 DUP1 REVERT JUMPDEST SWAP1 PUSH0 MSTORE PUSH1 0x20 PUSH0 KECCAK256 ADD PUSH0 SWAP2 POP SWAP2 POP POP DUP1 SLOAD PUSH2 0x96C SWAP1 PUSH2 0x10CE JUMP JUMPDEST DUP1 PUSH1 0x1F ADD PUSH1 0x20 DUP1 SWAP2 DIV MUL PUSH1 0x20 ADD PUSH1 0x40 MLOAD SWAP1 DUP2 ADD PUSH1 0x40 MSTORE DUP1 SWAP3 SWAP2 SWAP1 DUP2 DUP2 MSTORE PUSH1 0x20 ADD DUP3 DUP1 SLOAD PUSH2 0x998 SWAP1 PUSH2 0x10CE JUMP JUMPDEST DUP1 ISZERO PUSH2 0x9E3 JUMPI DUP1 PUSH1 0x1F LT PUSH2 0x9BA JUMPI PUSH2 0x100 DUP1 DUP4 SLOAD DIV MUL DUP4 MSTORE SWAP2 PUSH1 0x20 ADD SWAP2 PUSH2 0x9E3 JUMP JUMPDEST DUP3 ADD SWAP2 SWAP1 PUSH0 MSTORE PUSH1 0x20 PUSH0 KECCAK256 SWAP1 JUMPDEST DUP2 SLOAD DUP2 MSTORE SWAP1 PUSH1 0x1 ADD SWAP1 PUSH1 0x20 ADD DUP1 DUP4 GT PUSH2 0x9C6 JUMPI DUP3 SWAP1 SUB PUSH1 0x1F AND DUP3 ADD SWAP2 JUMPDEST POP POP POP POP POP DUP2 JUMP JUMPDEST DUP1 MLOAD PUSH1 0x20 DUP2 DUP4 ADD DUP2 ADD DUP1 MLOAD PUSH0 DUP3 MSTORE SWAP3 DUP3 ADD SWAP2 SWAP1 SWAP4 ADD KECCAK256 SWAP2 MSTORE DUP1 SLOAD DUP2 SWAP1 PUSH2 0xA10 SWAP1 PUSH2 0x10CE JUMP JUMPDEST DUP1 PUSH1 0x1F ADD PUSH1 0x20 DUP1 SWAP2 DIV MUL PUSH1 0x20 ADD PUSH1 0x40 MLOAD SWAP1 DUP2 ADD PUSH1 0x40 MSTORE DUP1 SWAP3 SWAP2 SWAP1 DUP2 DUP2 MSTORE PUSH1 0x20 ADD DUP3 DUP1 SLOAD PUSH2 0xA3C SWAP1 PUSH2 0x10CE JUMP JUMPDEST DUP1 ISZERO PUSH2 0xA87 JUMPI DUP1 PUSH1 0x1F LT PUSH2 0xA5E JUMPI PUSH2 0x100 DUP1 DUP4 SLOAD DIV MUL DUP4 MSTORE SWAP2 PUSH1 0x20 ADD SWAP2 PUSH2 0xA87 JUMP JUMPDEST DUP3 ADD SWAP2 SWAP1 PUSH0 MSTORE PUSH1 0x20 PUSH0 KECCAK256 SWAP1 JUMPDEST DUP2 SLOAD DUP2 MSTORE SWAP1 PUSH1 0x1 ADD SWAP1 PUSH1 0x20 ADD DUP1 DUP4 GT PUSH2 0xA6A JUMPI DUP3 SWAP1 SUB PUSH1 0x1F AND DUP3 ADD SWAP2 JUMPDEST POP POP POP POP POP SWAP1 DUP1 PUSH1 0x1 ADD DUP1 SLOAD PUSH2 0xA9C SWAP1 PUSH2 0x10CE JUMP JUMPDEST DUP1 PUSH1 0x1F ADD PUSH1 0x20 DUP1 SWAP2 DIV MUL PUSH1 0x20 ADD PUSH1 0x40 MLOAD SWAP1 DUP2 ADD PUSH1 0x40 MSTORE DUP1 SWAP3 SWAP2 SWAP1 DUP2 DUP2 MSTORE PUSH1 0x20 ADD DUP3 DUP1 SLOAD PUSH2 0xAC8 SWAP1 PUSH2 0x10CE JUMP JUMPDEST DUP1 ISZERO PUSH2 0xB13 JUMPI DUP1 PUSH1 0x1F LT PUSH2 0xAEA JUMPI PUSH2 0x100 DUP1 DUP4 SLOAD DIV MUL DUP4 MSTORE SWAP2 PUSH1 0x20 ADD SWAP2 PUSH2 0xB13 JUMP JUMPDEST DUP3 ADD SWAP2 SWAP1 PUSH0 MSTORE PUSH1 0x20 PUSH0 KECCAK256 SWAP1 JUMPDEST DUP2 SLOAD DUP2 MSTORE SWAP1 PUSH1 0x1 ADD SWAP1 PUSH1 0x20 ADD DUP1 DUP4 GT PUSH2 0xAF6 JUMPI DUP3 SWAP1 SUB PUSH1 0x1F AND DUP3 ADD SWAP2 JUMPDEST POP POP POP POP PUSH1 0x2 DUP4 ADD SLOAD PUSH1 0x3 DUP5 ADD SLOAD PUSH1 0x4 SWAP1 SWAP5 ADD SLOAD SWAP3 SWAP4 PUSH1 0x1 PUSH1 0x1 PUSH1 0xA0 SHL SUB SWAP1 SWAP2 AND SWAP3 SWAP1 SWAP2 POP PUSH1 0xFF AND DUP6 JUMP JUMPDEST PUSH0 DUP2 PUSH1 0x1 PUSH1 0x1 PUSH1 0xA0 SHL SUB AND PUSH0 DUP5 PUSH1 0x40 MLOAD PUSH2 0xB58 SWAP2 SWAP1 PUSH2 0x105B JUMP JUMPDEST SWAP1 DUP2 MSTORE PUSH1 0x40 MLOAD SWAP1 DUP2 SWAP1 SUB PUSH1 0x20 ADD SWAP1 KECCAK256 PUSH1 0x2 ADD SLOAD PUSH1 0x1 PUSH1 0x1 PUSH1 0xA0 SHL SUB AND EQ SWAP1 POP JUMPDEST SWAP3 SWAP2 POP POP JUMP JUMPDEST DUP1 MLOAD PUSH1 0x20 DUP2 DUP4 ADD DUP2 ADD DUP1 MLOAD PUSH1 0x3 DUP3 MSTORE SWAP3 DUP3 ADD SWAP2 SWAP1 SWAP4 ADD KECCAK256 SWAP2 MSTORE DUP1 SLOAD PUSH2 0x96C SWAP1 PUSH2 0x10CE JUMP JUMPDEST PUSH0 DUP1 DUP4 PUSH1 0x40 MLOAD PUSH2 0xBB2 SWAP2 SWAP1 PUSH2 0x105B JUMP JUMPDEST SWAP1 DUP2 MSTORE PUSH1 0x40 MLOAD SWAP1 DUP2 SWAP1 SUB PUSH1 0x20 ADD SWAP1 KECCAK256 PUSH1 0x2 DUP2 ADD SLOAD SWAP1 SWAP2 POP PUSH1 0x1 PUSH1 0x1 PUSH1 0xA0 SHL SUB AND CALLER EQ PUSH2 0xC0C JUMPI PUSH1 0x40 MLOAD PUSH3 0x461BCD PUSH1 0xE5 SHL DUP2 MSTORE PUSH1 0x20 PUSH1 0x4 DUP3 ADD MSTORE PUSH1 0x9 PUSH1 0x24 DUP3 ADD MSTORE PUSH9 0x2737BA1037BBB732B9 PUSH1 0xB9 SHL PUSH1 0x44 DUP3 ADD MSTORE PUSH1 0x64 ADD PUSH2 0x296 JUMP JUMPDEST PUSH1 0x4 DUP2 ADD SLOAD PUSH1 0xFF AND PUSH2 0xC56 JUMPI PUSH1 0x40 MLOAD PUSH3 0x461BCD PUSH1 0xE5 SHL DUP2 MSTORE PUSH1 0x20 PUSH1 0x4 DUP3 ADD MSTORE PUSH1 0x13 PUSH1 0x24 DUP3 ADD MSTORE PUSH19 0x50726F7065727479206E6F7420616374697665 PUSH1 0x68 SHL PUSH1 0x44 DUP3 ADD MSTORE PUSH1 0x64 ADD PUSH2 0x296 JUMP JUMPDEST PUSH0 PUSH1 0x2 DUP5 PUSH1 0x40 MLOAD PUSH2 0xC67 SWAP2 SWAP1 PUSH2 0x105B JUMP JUMPDEST SWAP1 DUP2 MSTORE PUSH1 0x40 MLOAD SWAP1 DUP2 SWAP1 SUB PUSH1 0x20 ADD SWAP1 KECCAK256 SLOAD PUSH1 0xFF AND PUSH1 0x3 DUP2 GT ISZERO PUSH2 0xC8B JUMPI PUSH2 0xC8B PUSH2 0xE9B JUMP JUMPDEST EQ PUSH2 0xCD8 JUMPI PUSH1 0x40 MLOAD PUSH3 0x461BCD PUSH1 0xE5 SHL DUP2 MSTORE PUSH1 0x20 PUSH1 0x4 DUP3 ADD MSTORE PUSH1 0x1D PUSH1 0x24 DUP3 ADD MSTORE PUSH32 0x50726F706572747920737461747573206973206E6F7420414354495645000000 PUSH1 0x44 DUP3 ADD MSTORE PUSH1 0x64 ADD PUSH2 0x296 JUMP JUMPDEST PUSH1 0x2 DUP2 ADD DUP1 SLOAD PUSH1 0x1 PUSH1 0x1 PUSH1 0xA0 SHL SUB DUP5 DUP2 AND PUSH1 0x1 PUSH1 0x1 PUSH1 0xA0 SHL SUB NOT DUP4 AND DUP2 OR SWAP1 SWAP4 SSTORE PUSH0 SWAP3 DUP4 MSTORE PUSH1 0x1 PUSH1 0x20 DUP2 DUP2 MSTORE PUSH1 0x40 DUP6 KECCAK256 DUP1 SLOAD SWAP3 DUP4 ADD DUP2 SSTORE DUP6 MSTORE SWAP1 SWAP4 KECCAK256 SWAP2 AND SWAP2 ADD PUSH2 0xD22 DUP6 DUP3 PUSH2 0x1152 JUMP JUMPDEST POP PUSH32 0x6840904F5B31827F74E1497360DA245F56E530C8C3DE3163A2D31F11493273C6 DUP5 DUP3 DUP6 PUSH1 0x40 MLOAD PUSH2 0xD56 SWAP4 SWAP3 SWAP2 SWAP1 PUSH2 0x127C JUMP JUMPDEST PUSH1 0x40 MLOAD DUP1 SWAP2 SUB SWAP1 LOG1 POP POP POP POP JUMP JUMPDEST PUSH4 0x4E487B71 PUSH1 0xE0 SHL PUSH0 MSTORE PUSH1 0x41 PUSH1 0x4 MSTORE PUSH1 0x24 PUSH0 REVERT JUMPDEST PUSH0 DUP3 PUSH1 0x1F DUP4 ADD SLT PUSH2 0xD87 JUMPI PUSH0 DUP1 REVERT JUMPDEST DUP2 CALLDATALOAD PUSH8 0xFFFFFFFFFFFFFFFF DUP1 DUP3 GT ISZERO PUSH2 0xDA2 JUMPI PUSH2 0xDA2 PUSH2 0xD64 JUMP JUMPDEST PUSH1 0x40 MLOAD PUSH1 0x1F DUP4 ADD PUSH1 0x1F NOT SWAP1 DUP2 AND PUSH1 0x3F ADD AND DUP2 ADD SWAP1 DUP3 DUP3 GT DUP2 DUP4 LT OR ISZERO PUSH2 0xDCA JUMPI PUSH2 0xDCA PUSH2 0xD64 JUMP JUMPDEST DUP2 PUSH1 0x40 MSTORE DUP4 DUP2 MSTORE DUP7 PUSH1 0x20 DUP6 DUP9 ADD ADD GT ISZERO PUSH2 0xDE2 JUMPI PUSH0 DUP1 REVERT JUMPDEST DUP4 PUSH1 0x20 DUP8 ADD PUSH1 0x20 DUP4 ADD CALLDATACOPY PUSH0 PUSH1 0x20 DUP6 DUP4 ADD ADD MSTORE DUP1 SWAP5 POP POP POP POP POP SWAP3 SWAP2 POP POP JUMP JUMPDEST PUSH0 PUSH1 0x20 DUP3 DUP5 SUB SLT ISZERO PUSH2 0xE11 JUMPI PUSH0 DUP1 REVERT JUMPDEST DUP2 CALLDATALOAD PUSH8 0xFFFFFFFFFFFFFFFF DUP2 GT ISZERO PUSH2 0xE27 JUMPI PUSH0 DUP1 REVERT JUMPDEST PUSH2 0xE33 DUP5 DUP3 DUP6 ADD PUSH2 0xD78 JUMP JUMPDEST SWAP5 SWAP4 POP POP POP POP JUMP JUMPDEST PUSH0 DUP1 PUSH1 0x40 DUP4 DUP6 SUB SLT ISZERO PUSH2 0xE4C JUMPI PUSH0 DUP1 REVERT JUMPDEST DUP3 CALLDATALOAD PUSH8 0xFFFFFFFFFFFFFFFF DUP1 DUP3 GT ISZERO PUSH2 0xE63 JUMPI PUSH0 DUP1 REVERT JUMPDEST PUSH2 0xE6F DUP7 DUP4 DUP8 ADD PUSH2 0xD78 JUMP JUMPDEST SWAP4 POP PUSH1 0x20 DUP6 ADD CALLDATALOAD SWAP2 POP DUP1 DUP3 GT ISZERO PUSH2 0xE84 JUMPI PUSH0 DUP1 REVERT JUMPDEST POP PUSH2 0xE91 DUP6 DUP3 DUP7 ADD PUSH2 0xD78 JUMP JUMPDEST SWAP2 POP POP SWAP3 POP SWAP3 SWAP1 POP JUMP JUMPDEST PUSH4 0x4E487B71 PUSH1 0xE0 SHL PUSH0 MSTORE PUSH1 0x21 PUSH1 0x4 MSTORE PUSH1 0x24 PUSH0 REVERT JUMPDEST PUSH1 0x4 DUP2 LT PUSH2 0xECB JUMPI PUSH4 0x4E487B71 PUSH1 0xE0 SHL PUSH0 MSTORE PUSH1 0x21 PUSH1 0x4 MSTORE PUSH1 0x24 PUSH0 REVERT JUMPDEST SWAP1 MSTORE JUMP JUMPDEST PUSH1 0x20 DUP2 ADD PUSH2 0xB78 DUP3 DUP5 PUSH2 0xEAF JUMP JUMPDEST DUP1 CALLDATALOAD PUSH1 0x1 PUSH1 0x1 PUSH1 0xA0 SHL SUB DUP2 AND DUP2 EQ PUSH2 0xEF3 JUMPI PUSH0 DUP1 REVERT JUMPDEST SWAP2 SWAP1 POP JUMP JUMPDEST PUSH0 PUSH1 0x20 DUP3 DUP5 SUB SLT ISZERO PUSH2 0xF08 JUMPI PUSH0 DUP1 REVERT JUMPDEST PUSH2 0xF11 DUP3 PUSH2 0xEDD JUMP JUMPDEST SWAP4 SWAP3 POP POP POP JUMP JUMPDEST PUSH0 DUP1 PUSH1 0x40 DUP4 DUP6 SUB SLT ISZERO PUSH2 0xF29 JUMPI PUSH0 DUP1 REVERT JUMPDEST PUSH2 0xF32 DUP4 PUSH2 0xEDD JUMP JUMPDEST SWAP5 PUSH1 0x20 SWAP4 SWAP1 SWAP4 ADD CALLDATALOAD SWAP4 POP POP POP JUMP JUMPDEST PUSH0 JUMPDEST DUP4 DUP2 LT ISZERO PUSH2 0xF5A JUMPI DUP2 DUP2 ADD MLOAD DUP4 DUP3 ADD MSTORE PUSH1 0x20 ADD PUSH2 0xF42 JUMP JUMPDEST POP POP PUSH0 SWAP2 ADD MSTORE JUMP JUMPDEST PUSH0 DUP2 MLOAD DUP1 DUP5 MSTORE PUSH2 0xF79 DUP2 PUSH1 0x20 DUP7 ADD PUSH1 0x20 DUP7 ADD PUSH2 0xF40 JUMP JUMPDEST PUSH1 0x1F ADD PUSH1 0x1F NOT AND SWAP3 SWAP1 SWAP3 ADD PUSH1 0x20 ADD SWAP3 SWAP2 POP POP JUMP JUMPDEST PUSH1 0x20 DUP2 MSTORE PUSH0 PUSH2 0xF11 PUSH1 0x20 DUP4 ADD DUP5 PUSH2 0xF62 JUMP JUMPDEST PUSH1 0xA0 DUP2 MSTORE PUSH0 PUSH2 0xFB1 PUSH1 0xA0 DUP4 ADD DUP9 PUSH2 0xF62 JUMP JUMPDEST DUP3 DUP2 SUB PUSH1 0x20 DUP5 ADD MSTORE PUSH2 0xFC3 DUP2 DUP9 PUSH2 0xF62 JUMP JUMPDEST PUSH1 0x1 PUSH1 0x1 PUSH1 0xA0 SHL SUB SWAP7 SWAP1 SWAP7 AND PUSH1 0x40 DUP5 ADD MSTORE POP POP PUSH1 0x60 DUP2 ADD SWAP3 SWAP1 SWAP3 MSTORE ISZERO ISZERO PUSH1 0x80 SWAP1 SWAP2 ADD MSTORE SWAP3 SWAP2 POP POP JUMP JUMPDEST PUSH0 DUP1 PUSH1 0x40 DUP4 DUP6 SUB SLT ISZERO PUSH2 0xFFD JUMPI PUSH0 DUP1 REVERT JUMPDEST DUP3 CALLDATALOAD PUSH8 0xFFFFFFFFFFFFFFFF DUP2 GT ISZERO PUSH2 0x1013 JUMPI PUSH0 DUP1 REVERT JUMPDEST PUSH2 0x101F DUP6 DUP3 DUP7 ADD PUSH2 0xD78 JUMP JUMPDEST SWAP3 POP POP PUSH2 0x102E PUSH1 0x20 DUP5 ADD PUSH2 0xEDD JUMP JUMPDEST SWAP1 POP SWAP3 POP SWAP3 SWAP1 POP JUMP JUMPDEST PUSH1 0x20 DUP1 DUP3 MSTORE PUSH1 0xA SWAP1 DUP3 ADD MSTORE PUSH10 0x27B7363C9030B236B4B7 PUSH1 0xB1 SHL PUSH1 0x40 DUP3 ADD MSTORE PUSH1 0x60 ADD SWAP1 JUMP JUMPDEST PUSH0 DUP3 MLOAD PUSH2 0x106C DUP2 DUP5 PUSH1 0x20 DUP8 ADD PUSH2 0xF40 JUMP JUMPDEST SWAP2 SWAP1 SWAP2 ADD SWAP3 SWAP2 POP POP JUMP JUMPDEST PUSH1 0x20 DUP1 DUP3 MSTORE PUSH1 0x17 SWAP1 DUP3 ADD MSTORE PUSH32 0x50726F7065727479206E6F742072656769737465726564000000000000000000 PUSH1 0x40 DUP3 ADD MSTORE PUSH1 0x60 ADD SWAP1 JUMP JUMPDEST PUSH1 0x40 DUP2 MSTORE PUSH0 PUSH2 0x10BF PUSH1 0x40 DUP4 ADD DUP6 PUSH2 0xF62 JUMP JUMPDEST SWAP1 POP PUSH2 0xF11 PUSH1 0x20 DUP4 ADD DUP5 PUSH2 0xEAF JUMP JUMPDEST PUSH1 0x1 DUP2 DUP2 SHR SWAP1 DUP3 AND DUP1 PUSH2 0x10E2 JUMPI PUSH1 0x7F DUP3 AND SWAP2 POP JUMPDEST PUSH1 0x20 DUP3 LT DUP2 SUB PUSH2 0x1100 JUMPI PUSH4 0x4E487B71 PUSH1 0xE0 SHL PUSH0 MSTORE PUSH1 0x22 PUSH1 0x4 MSTORE PUSH1 0x24 PUSH0 REVERT JUMPDEST POP SWAP2 SWAP1 POP JUMP JUMPDEST PUSH1 0x1F DUP3 GT ISZERO PUSH2 0x114D JUMPI DUP1 PUSH0 MSTORE PUSH1 0x20 PUSH0 KECCAK256 PUSH1 0x1F DUP5 ADD PUSH1 0x5 SHR DUP2 ADD PUSH1 0x20 DUP6 LT ISZERO PUSH2 0x112B JUMPI POP DUP1 JUMPDEST PUSH1 0x1F DUP5 ADD PUSH1 0x5 SHR DUP3 ADD SWAP2 POP JUMPDEST DUP2 DUP2 LT ISZERO PUSH2 0x114A JUMPI PUSH0 DUP2 SSTORE PUSH1 0x1 ADD PUSH2 0x1137 JUMP JUMPDEST POP POP JUMPDEST POP POP POP JUMP JUMPDEST DUP2 MLOAD PUSH8 0xFFFFFFFFFFFFFFFF DUP2 GT ISZERO PUSH2 0x116C JUMPI PUSH2 0x116C PUSH2 0xD64 JUMP JUMPDEST PUSH2 0x1180 DUP2 PUSH2 0x117A DUP5 SLOAD PUSH2 0x10CE JUMP JUMPDEST DUP5 PUSH2 0x1106 JUMP JUMPDEST PUSH1 0x20 DUP1 PUSH1 0x1F DUP4 GT PUSH1 0x1 DUP2 EQ PUSH2 0x11B3 JUMPI PUSH0 DUP5 ISZERO PUSH2 0x119C JUMPI POP DUP6 DUP4 ADD MLOAD JUMPDEST PUSH0 NOT PUSH1 0x3 DUP7 SWAP1 SHL SHR NOT AND PUSH1 0x1 DUP6 SWAP1 SHL OR DUP6 SSTORE PUSH2 0x120A JUMP JUMPDEST PUSH0 DUP6 DUP2 MSTORE PUSH1 0x20 DUP2 KECCAK256 PUSH1 0x1F NOT DUP7 AND SWAP2 JUMPDEST DUP3 DUP2 LT ISZERO PUSH2 0x11E1 JUMPI DUP9 DUP7 ADD MLOAD DUP3 SSTORE SWAP5 DUP5 ADD SWAP5 PUSH1 0x1 SWAP1 SWAP2 ADD SWAP1 DUP5 ADD PUSH2 0x11C2 JUMP JUMPDEST POP DUP6 DUP3 LT ISZERO PUSH2 0x11FE JUMPI DUP8 DUP6 ADD MLOAD PUSH0 NOT PUSH1 0x3 DUP9 SWAP1 SHL PUSH1 0xF8 AND SHR NOT AND DUP2 SSTORE JUMPDEST POP POP PUSH1 0x1 DUP5 PUSH1 0x1 SHL ADD DUP6 SSTORE JUMPDEST POP POP POP POP POP POP JUMP JUMPDEST PUSH1 0x60 DUP2 MSTORE PUSH0 PUSH2 0x1224 PUSH1 0x60 DUP4 ADD DUP7 PUSH2 0xF62 JUMP JUMPDEST PUSH1 0x1 PUSH1 0x1 PUSH1 0xA0 SHL SUB DUP6 AND PUSH1 0x20 DUP5 ADD MSTORE DUP3 DUP2 SUB PUSH1 0x40 DUP5 ADD MSTORE PUSH2 0x1245 DUP2 DUP6 PUSH2 0xF62 JUMP JUMPDEST SWAP7 SWAP6 POP POP POP POP POP POP JUMP JUMPDEST PUSH1 0x40 DUP2 MSTORE PUSH0 PUSH2 0x1261 PUSH1 0x40 DUP4 ADD DUP6 PUSH2 0xF62 JUMP JUMPDEST DUP3 DUP2 SUB PUSH1 0x20 DUP5 ADD MSTORE PUSH2 0x1273 DUP2 DUP6 PUSH2 0xF62 JUMP JUMPDEST SWAP6 SWAP5 POP POP POP POP POP JUMP JUMPDEST PUSH1 0x60 DUP2 MSTORE PUSH0 PUSH2 0x128E PUSH1 0x60 DUP4 ADD DUP7 PUSH2 0xF62 JUMP JUMPDEST PUSH1 0x1 PUSH1 0x1 PUSH1 0xA0 SHL SUB SWAP5 DUP6 AND PUSH1 0x20 DUP5 ADD MSTORE SWAP3 SWAP1 SWAP4 AND PUSH1 0x40 SWAP1 SWAP2 ADD MSTORE SWAP3 SWAP2 POP POP JUMP INVALID 0xE2 MOD PUSH15 0xED6A21FE010DCFB0FE900BB2313161 PUSH25 0xAB42B606888039BEA06E2272E8A26469706673582212204DF1 TLOAD CREATE PUSH20 0x157138B9CF27EEE2CC08A91527C81662BB7D0BD8 BLOCKHASH 0xE0 SWAP13 0x27 0xD0 0xB4 LT PUSH5 0x736F6C6343 STOP ADDMOD XOR STOP CALLER "},"methodIdentifiers":{"admin()":"f851a440","changeAdmin(address)":"8f283970","disputeProperty(string)":"6813ab25","freezeProperty(string)":"1d7abe16","litigateProperty(string)":"3541d13a","ownerProperties(address,uint256)":"8f48bd5b","properties(string)":"9be8f2a6","propertyStatus(string)":"3f0a3cac","propertyVerdicts(string)":"a0ef33cb","recordVerdict(string,string)":"4b7fb859","registerProperty(string,string)":"1b0f8ea8","transferOwnership(string,address)":"c0e793c2","unfreezeProperty(string)":"0a3314d3","verifyOwner(string,address)":"9facb0d8"}}}}}