{
  "_format": "hh-sol-artifact-1",
  "contractName": "PropertyNFT",
  "sourceName": "contracts/PropertyNFT.sol",
  "abi": [
    {
      "inputs": [],
      "stateMutability": "nonpayable",
      "type": "constructor"
    },
    {
      "inputs": [
        {
          "internalType": "address",
          "name": "sender",
          "type": "address"
        },
        {
          "internalType": "uint256",
          "name": "tokenId",
          "type": "uint256"
        },
        {
          "internalType": "address",
          "name": "owner",
          "type": "address"
        }
      ],
      "name": "ERC721IncorrectOwner",
      "type": "error"
    },
    {
      "inputs": [
        {
          "internalType": "address",
          "name": "operator",
          "type": "address"
        },
        {
          "internalType": "uint256",
          "name": "tokenId",
          "type": "uint256"
        }
      ],
      "name": "ERC721InsufficientApproval",
      "type": "error"
    },
    {
      "inputs": [
        {
          "internalType": "address",
          "name": "approver",
          "type": "address"
        }
      ],
      "name": "ERC721InvalidApprover",
      "type": "error"
    },
    {
      "inputs": [
        {
          "internalType": "address",
          "name": "operator",
          "type": "address"
        }
      ],
      "name": "ERC721InvalidOperator",
      "type": "error"
    },
    {
      "inputs": [
        {
          "internalType": "address",
          "name": "owner",
          "type": "address"
        }
      ],
      "name": "ERC721InvalidOwner",
      "type": "error"
    },
    {
      "inputs": [
        {
          "internalType": "address",
          "name": "receiver",
          "type": "address"
        }
      ],
      "name": "ERC721InvalidReceiver",
      "type": "error"
    },
    {
      "inputs": [
        {
          "internalType": "address",
          "name": "sender",
          "type": "address"
        }
      ],
      "name": "ERC721InvalidSender",
      "type": "error"
    },
    {
      "inputs": [
        {
          "internalType": "uint256",
          "name": "tokenId",
          "type": "uint256"
        }
      ],
      "name": "ERC721NonexistentToken",
      "type": "error"
    },
    {
      "inputs": [
        {
          "internalType": "address",
          "name": "owner",
          "type": "address"
        }
      ],
      "name": "OwnableInvalidOwner",
      "type": "error"
    },
    {
      "inputs": [
        {
          "internalType": "address",
          "name": "account",
          "type": "address"
        }
      ],
      "name": "OwnableUnauthorizedAccount",
      "type": "error"
    },
    {
      "anonymous": false,
      "inputs": [
        {
          "indexed": true,
          "internalType": "address",
          "name": "owner",
          "type": "address"
        },
        {
          "indexed": true,
          "internalType": "address",
          "name": "approved",
          "type": "address"
        },
        {
          "indexed": true,
          "internalType": "uint256",
          "name": "tokenId",
          "type": "uint256"
        }
      ],
      "name": "Approval",
      "type": "event"
    },
    {
      "anonymous": false,
      "inputs": [
        {
          "indexed": true,
          "internalType": "address",
          "name": "owner",
          "type": "address"
        },
        {
          "indexed": true,
          "internalType": "address",
          "name": "operator",
          "type": "address"
        },
        {
          "indexed": false,
          "internalType": "bool",
          "name": "approved",
          "type": "bool"
        }
      ],
      "name": "ApprovalForAll",
      "type": "event"
    },
    {
      "anonymous": false,
      "inputs": [
        {
          "indexed": false,
          "internalType": "uint256",
          "name": "_fromTokenId",
          "type": "uint256"
        },
        {
          "indexed": false,
          "internalType": "uint256",
          "name": "_toTokenId",
          "type": "uint256"
        }
      ],
      "name": "BatchMetadataUpdate",
      "type": "event"
    },
    {
      "anonymous": false,
      "inputs": [
        {
          "indexed": false,
          "internalType": "uint256",
          "name": "_tokenId",
          "type": "uint256"
        }
      ],
      "name": "MetadataUpdate",
      "type": "event"
    },
    {
      "anonymous": false,
      "inputs": [
        {
          "indexed": true,
          "internalType": "address",
          "name": "previousOwner",
          "type": "address"
        },
        {
          "indexed": true,
          "internalType": "address",
          "name": "newOwner",
          "type": "address"
        }
      ],
      "name": "OwnershipTransferred",
      "type": "event"
    },
    {
      "anonymous": false,
      "inputs": [
        {
          "indexed": true,
          "internalType": "address",
          "name": "from",
          "type": "address"
        },
        {
          "indexed": true,
          "internalType": "address",
          "name": "to",
          "type": "address"
        },
        {
          "indexed": true,
          "internalType": "uint256",
          "name": "tokenId",
          "type": "uint256"
        }
      ],
      "name": "Transfer",
      "type": "event"
    },
    {
      "inputs": [
        {
          "internalType": "address",
          "name": "to",
          "type": "address"
        },
        {
          "internalType": "uint256",
          "name": "tokenId",
          "type": "uint256"
        }
      ],
      "name": "approve",
      "outputs": [],
      "stateMutability": "nonpayable",
      "type": "function"
    },
    {
      "inputs": [
        {
          "internalType": "address",
          "name": "owner",
          "type": "address"
        }
      ],
      "name": "balanceOf",
      "outputs": [
        {
          "internalType": "uint256",
          "name": "",
          "type": "uint256"
        }
      ],
      "stateMutability": "view",
      "type": "function"
    },
    {
      "inputs": [
        {
          "internalType": "uint256",
          "name": "tokenId",
          "type": "uint256"
        }
      ],
      "name": "getApproved",
      "outputs": [
        {
          "internalType": "address",
          "name": "",
          "type": "address"
        }
      ],
      "stateMutability": "view",
      "type": "function"
    },
    {
      "inputs": [
        {
          "internalType": "address",
          "name": "owner",
          "type": "address"
        },
        {
          "internalType": "address",
          "name": "operator",
          "type": "address"
        }
      ],
      "name": "isApprovedForAll",
      "outputs": [
        {
          "internalType": "bool",
          "name": "",
          "type": "bool"
        }
      ],
      "stateMutability": "view",
      "type": "function"
    },
    {
      "inputs": [
        {
          "internalType": "address",
          "name": "to",
          "type": "address"
        },
        {
          "internalType": "string",
          "name": "tokenURI",
          "type": "string"
        }
      ],
      "name": "mintPropertyNFT",
      "outputs": [
        {
          "internalType": "uint256",
          "name": "",
          "type": "uint256"
        }
      ],
      "stateMutability": "nonpayable",
      "type": "function"
    },
    {
      "inputs": [],
      "name": "name",
      "outputs": [
        {
          "internalType": "string",
          "name": "",
          "type": "string"
        }
      ],
      "stateMutability": "view",
      "type": "function"
    },
    {
      "inputs": [],
      "name": "owner",
      "outputs": [
        {
          "internalType": "address",
          "name": "",
          "type": "address"
        }
      ],
      "stateMutability": "view",
      "type": "function"
    },
    {
      "inputs": [
        {
          "internalType": "uint256",
          "name": "tokenId",
          "type": "uint256"
        }
      ],
      "name": "ownerOf",
      "outputs": [
        {
          "internalType": "address",
          "name": "",
          "type": "address"
        }
      ],
      "stateMutability": "view",
      "type": "function"
    },
    {
      "inputs": [],
      "name": "renounceOwnership",
      "outputs": [],
      "stateMutability": "nonpayable",
      "type": "function"
    },
    {
      "inputs": [
        {
          "internalType": "address",
          "name": "from",
          "type": "address"
        },
        {
          "internalType": "address",
          "name": "to",
          "type": "address"
        },
        {
          "internalType": "uint256",
          "name": "tokenId",
          "type": "uint256"
        }
      ],
      "name": "safeTransferFrom",
      "outputs": [],
      "stateMutability": "nonpayable",
      "type": "function"
    },
    {
      "inputs": [
        {
          "internalType": "address",
          "name": "from",
          "type": "address"
        },
        {
          "internalType": "address",
          "name": "to",
          "type": "address"
        },
        {
          "internalType": "uint256",
          "name": "tokenId",
          "type": "uint256"
        },
        {
          "internalType": "bytes",
          "name": "data",
          "type": "bytes"
        }
      ],
      "name": "safeTransferFrom",
      "outputs": [],
      "stateMutability": "nonpayable",
      "type": "function"
    },
    {
      "inputs": [
        {
          "internalType": "address",
          "name": "operator",
          "type": "address"
        },
        {
          "internalType": "bool",
          "name": "approved",
          "type": "bool"
        }
      ],
      "name": "setApprovalForAll",
      "outputs": [],
      "stateMutability": "nonpayable",
      "type": "function"
    },
    {
      "inputs": [
        {
          "internalType": "bytes4",
          "name": "interfaceId",
          "type": "bytes4"
        }
      ],
      "name": "supportsInterface",
      "outputs": [
        {
          "internalType": "bool",
          "name": "",
          "type": "bool"
        }
      ],
      "stateMutability": "view",
      "type": "function"
    },
    {
      "inputs": [],
      "name": "symbol",
      "outputs": [
        {
          "internalType": "string",
          "name": "",
          "type": "string"
        }
      ],
      "stateMutability": "view",
      "type": "function"
    },
    {
      "inputs": [
        {
          "internalType": "uint256",
          "name": "tokenId",
          "type": "uint256"
        }
      ],
      "name": "tokenURI",
      "outputs": [
        {
          "internalType": "string",
          "name": "",
          "type": "string"
        }
      ],
      "stateMutability": "view",
      "type": "function"
    },
    {
      "inputs": [
        {
          "internalType": "address",
          "name": "from",
          "type": "address"
        },
        {
          "internalType": "address",
          "name": "to",
          "type": "address"
        },
        {
          "internalType": "uint256",
          "name": "tokenId",
          "type": "uint256"
        }
      ],
      "name": "transferFrom",
      "outputs": [],
      "stateMutability": "nonpayable",
      "type": "function"
    },
    {
      "inputs": [
        {
          "internalType": "address",
          "name": "newOwner",
          "type": "address"
        }
      ],
      "name": "transferOwnership",
      "outputs": [],
      "stateMutability": "nonpayable",
      "type": "function"
    }
  ],
  "bytecode": "0x608060405234801562000010575f80fd5b50336040518060400160405280601481526020017f4c616e64436861696e50726f70657274794e4654000000000000000000000000815250604051806040016040528060068152602001651310d413919560d21b815250815f9081620000779190620001b8565b506001620000868282620001b8565b5050506001600160a01b038116620000b757604051631e4fbdf760e01b81525f600482015260240160405180910390fd5b620000c281620000c9565b5062000284565b600780546001600160a01b038381166001600160a01b0319831681179093556040519116919082907f8be0079c531659141344cd1fd0a4f28419497f9722a3daafe3b4186f6b6457e0905f90a35050565b634e487b7160e01b5f52604160045260245ffd5b600181811c908216806200014357607f821691505b6020821081036200016257634e487b7160e01b5f52602260045260245ffd5b50919050565b601f821115620001b357805f5260205f20601f840160051c810160208510156200018f5750805b601f840160051c820191505b81811015620001b0575f81556001016200019b565b50505b505050565b81516001600160401b03811115620001d457620001d46200011a565b620001ec81620001e584546200012e565b8462000168565b602080601f83116001811462000222575f84156200020a5750858301515b5f19600386901b1c1916600185901b1785556200027c565b5f85815260208120601f198616915b82811015620002525788860151825594840194600190910190840162000231565b50858210156200027057878501515f19600388901b60f8161c191681555b505060018460011b0185555b505050505050565b6113f380620002925f395ff3fe608060405234801561000f575f80fd5b5060043610610106575f3560e01c806370a082311161009e578063a22cb4651161006e578063a22cb46514610215578063b88d4fde14610228578063c87b56dd1461023b578063e985e9c51461024e578063f2fde38b14610261575f80fd5b806370a08231146101e1578063715018a6146101f45780638da5cb5b146101fc57806395d89b411461020d575f80fd5b8063131f04fd116100d9578063131f04fd1461018757806323b872dd146101a857806342842e0e146101bb5780636352211e146101ce575f80fd5b806301ffc9a71461010a57806306fdde0314610132578063081812fc14610147578063095ea7b314610172575b5f80fd5b61011d610118366004610ef0565b610274565b60405190151581526020015b60405180910390f35b61013a61029e565b6040516101299190610f58565b61015a610155366004610f6a565b61032d565b6040516001600160a01b039091168152602001610129565b610185610180366004610f9c565b610354565b005b61019a61019536600461104b565b610363565b604051908152602001610129565b6101856101b63660046110a9565b61039d565b6101856101c93660046110a9565b61042b565b61015a6101dc366004610f6a565b61044a565b61019a6101ef3660046110e2565b610454565b610185610499565b6007546001600160a01b031661015a565b61013a6104ac565b6101856102233660046110fb565b6104bb565b610185610236366004611134565b6104c6565b61013a610249366004610f6a565b6104de565b61011d61025c3660046111ab565b61055f565b61018561026f3660046110e2565b61058c565b5f6001600160e01b03198216632483248360e11b14806102985750610298826105c9565b92915050565b60605f80546102ac906111dc565b80601f01602080910402602001604051908101604052809291908181526020018280546102d8906111dc565b80156103235780601f106102fa57610100808354040283529160200191610323565b820191905f5260205f20905b81548152906001019060200180831161030657829003601f168201915b5050505050905090565b5f61033782610618565b505f828152600460205260409020546001600160a01b0316610298565b61035f828233610650565b5050565b5f61036c61065d565b600880549081905f61037d83611214565b919050555061038c848261068a565b61039681846106a3565b9392505050565b6001600160a01b0382166103cb57604051633250574960e11b81525f60048201526024015b60405180910390fd5b5f6103d78383336106f2565b9050836001600160a01b0316816001600160a01b031614610425576040516364283d7b60e01b81526001600160a01b03808616600483015260248201849052821660448201526064016103c2565b50505050565b61044583838360405180602001604052805f8152506104c6565b505050565b5f61029882610618565b5f6001600160a01b03821661047e576040516322718ad960e21b81525f60048201526024016103c2565b506001600160a01b03165f9081526003602052604090205490565b6104a161065d565b6104aa5f6107e4565b565b6060600180546102ac906111dc565b61035f338383610835565b6104d184848461039d565b61042533858585856108fc565b60606104e982610618565b505f6104ff60408051602081019091525f815290565b90505f61050b84610a24565b905081515f0361051c579392505050565b80511561054e578181604051602001610536929190611238565b60405160208183030381529060405292505050919050565b61055784610ac3565b949350505050565b6001600160a01b039182165f90815260056020908152604080832093909416825291909152205460ff1690565b61059461065d565b6001600160a01b0381166105bd57604051631e4fbdf760e01b81525f60048201526024016103c2565b6105c6816107e4565b50565b5f6001600160e01b031982166380ac58cd60e01b14806105f957506001600160e01b03198216635b5e139f60e01b145b8061029857506301ffc9a760e01b6001600160e01b0319831614610298565b5f818152600260205260408120546001600160a01b03168061029857604051637e27328960e01b8152600481018490526024016103c2565b6104458383836001610b33565b6007546001600160a01b031633146104aa5760405163118cdaa760e01b81523360048201526024016103c2565b61035f828260405180602001604052805f815250610c37565b5f8281526006602052604090206106ba82826112aa565b506040518281527ff8e1a15aba9398e019f0b49df1a4fde98ee17ae345cb5f6b5e2c27f5033e8ce79060200160405180910390a15050565b5f828152600260205260408120546001600160a01b039081169083161561071e5761071e818486610c4e565b6001600160a01b03811615610758576107395f855f80610b33565b6001600160a01b0381165f90815260036020526040902080545f190190555b6001600160a01b03851615610786576001600160a01b0385165f908152600360205260409020805460010190555b5f8481526002602052604080822080546001600160a01b0319166001600160a01b0389811691821790925591518793918516917fddf252ad1be2c89b69c2b068fc378daa952ba7f163c4a11628f55a4df523b3ef91a4949350505050565b600780546001600160a01b038381166001600160a01b0319831681179093556040519116919082907f8be0079c531659141344cd1fd0a4f28419497f9722a3daafe3b4186f6b6457e0905f90a35050565b6001600160a01b03831661085e5760405163a9fbf51f60e01b81525f60048201526024016103c2565b6001600160a01b03821661089057604051630b61174360e31b81526001600160a01b03831660048201526024016103c2565b6001600160a01b038381165f81815260056020908152604080832094871680845294825291829020805460ff191686151590811790915591519182527f17307eab39ab6107e8899845ad3d59bd9653f200f220920489ca2b5937696c31910160405180910390a3505050565b6001600160a01b0383163b15610a1d57604051630a85bd0160e11b81526001600160a01b0384169063150b7a029061093e908890889087908790600401611366565b6020604051808303815f875af1925050508015610978575060408051601f3d908101601f19168201909252610975918101906113a2565b60015b6109df573d8080156109a5576040519150601f19603f3d011682016040523d82523d5f602084013e6109aa565b606091505b5080515f036109d757604051633250574960e11b81526001600160a01b03851660048201526024016103c2565b805160208201fd5b6001600160e01b03198116630a85bd0160e11b14610a1b57604051633250574960e11b81526001600160a01b03851660048201526024016103c2565b505b5050505050565b5f818152600660205260409020805460609190610a40906111dc565b80601f0160208091040260200160405190810160405280929190818152602001828054610a6c906111dc565b8015610ab75780601f10610a8e57610100808354040283529160200191610ab7565b820191905f5260205f20905b815481529060010190602001808311610a9a57829003601f168201915b50505050509050919050565b6060610ace82610618565b505f610ae460408051602081019091525f815290565b90505f815111610b025760405180602001604052805f815250610396565b80610b0c84610cb2565b604051602001610b1d929190611238565b6040516020818303038152906040529392505050565b8080610b4757506001600160a01b03821615155b15610c08575f610b5684610618565b90506001600160a01b03831615801590610b825750826001600160a01b0316816001600160a01b031614155b8015610b955750610b93818461055f565b155b15610bbe5760405163a9fbf51f60e01b81526001600160a01b03841660048201526024016103c2565b8115610c065783856001600160a01b0316826001600160a01b03167f8c5be1e5ebec7d5bd14f71427d1e84f3dd0314c0f7b2291e5b200ac8c7c3b92560405160405180910390a45b505b50505f90815260046020526040902080546001600160a01b0319166001600160a01b0392909216919091179055565b610c418383610d42565b610445335f8585856108fc565b610c59838383610da3565b610445576001600160a01b038316610c8757604051637e27328960e01b8152600481018290526024016103c2565b60405163177e802f60e01b81526001600160a01b0383166004820152602481018290526044016103c2565b60605f610cbe83610e04565b60010190505f8167ffffffffffffffff811115610cdd57610cdd610fc4565b6040519080825280601f01601f191660200182016040528015610d07576020820181803683370190505b5090508181016020015b5f19016f181899199a1a9b1b9c1cb0b131b232b360811b600a86061a8153600a8504945084610d1157509392505050565b6001600160a01b038216610d6b57604051633250574960e11b81525f60048201526024016103c2565b5f610d7783835f6106f2565b90506001600160a01b03811615610445576040516339e3563760e11b81525f60048201526024016103c2565b5f6001600160a01b038316158015906105575750826001600160a01b0316846001600160a01b03161480610ddc5750610ddc848461055f565b806105575750505f908152600460205260409020546001600160a01b03908116911614919050565b5f8072184f03e93ff9f4daa797ed6e38ed64bf6a1f0160401b8310610e425772184f03e93ff9f4daa797ed6e38ed64bf6a1f0160401b830492506040015b6d04ee2d6d415b85acef81000000008310610e6e576d04ee2d6d415b85acef8100000000830492506020015b662386f26fc100008310610e8c57662386f26fc10000830492506010015b6305f5e1008310610ea4576305f5e100830492506008015b6127108310610eb857612710830492506004015b60648310610eca576064830492506002015b600a83106102985760010192915050565b6001600160e01b0319811681146105c6575f80fd5b5f60208284031215610f00575f80fd5b813561039681610edb565b5f5b83811015610f25578181015183820152602001610f0d565b50505f910152565b5f8151808452610f44816020860160208601610f0b565b601f01601f19169290920160200192915050565b602081525f6103966020830184610f2d565b5f60208284031215610f7a575f80fd5b5035919050565b80356001600160a01b0381168114610f97575f80fd5b919050565b5f8060408385031215610fad575f80fd5b610fb683610f81565b946020939093013593505050565b634e487b7160e01b5f52604160045260245ffd5b5f67ffffffffffffffff80841115610ff257610ff2610fc4565b604051601f8501601f19908116603f0116810190828211818310171561101a5761101a610fc4565b81604052809350858152868686011115611032575f80fd5b858560208301375f602087830101525050509392505050565b5f806040838503121561105c575f80fd5b61106583610f81565b9150602083013567ffffffffffffffff811115611080575f80fd5b8301601f81018513611090575f80fd5b61109f85823560208401610fd8565b9150509250929050565b5f805f606084860312156110bb575f80fd5b6110c484610f81565b92506110d260208501610f81565b9150604084013590509250925092565b5f602082840312156110f2575f80fd5b61039682610f81565b5f806040838503121561110c575f80fd5b61111583610f81565b915060208301358015158114611129575f80fd5b809150509250929050565b5f805f8060808587031215611147575f80fd5b61115085610f81565b935061115e60208601610f81565b925060408501359150606085013567ffffffffffffffff811115611180575f80fd5b8501601f81018713611190575f80fd5b61119f87823560208401610fd8565b91505092959194509250565b5f80604083850312156111bc575f80fd5b6111c583610f81565b91506111d360208401610f81565b90509250929050565b600181811c908216806111f057607f821691505b60208210810361120e57634e487b7160e01b5f52602260045260245ffd5b50919050565b5f6001820161123157634e487b7160e01b5f52601160045260245ffd5b5060010190565b5f8351611249818460208801610f0b565b83519083019061125d818360208801610f0b565b01949350505050565b601f82111561044557805f5260205f20601f840160051c8101602085101561128b5750805b601f840160051c820191505b81811015610a1d575f8155600101611297565b815167ffffffffffffffff8111156112c4576112c4610fc4565b6112d8816112d284546111dc565b84611266565b602080601f83116001811461130b575f84156112f45750858301515b5f19600386901b1c1916600185901b178555610a1b565b5f85815260208120601f198616915b828110156113395788860151825594840194600190910190840161131a565b508582101561135657878501515f19600388901b60f8161c191681555b5050505050600190811b01905550565b6001600160a01b03858116825284166020820152604081018390526080606082018190525f9061139890830184610f2d565b9695505050505050565b5f602082840312156113b2575f80fd5b815161039681610edb56fea26469706673582212204e2d5aad2a6c6bfe57690ac77b0622d9c23a24765d57831dd607594014f7051364736f6c63430008180033",
  "linkReferences": {},
  "deployedLinkReferences": {}
}