{
  "_format": "hh-sol-artifact-1",
  "contractName": "PropertyTransfer",
  "sourceName": "contracts/PropertyTransfer.sol",
  "abi": [
    {
      "inputs": [
        {
          "internalType": "address",
          "name": "_registry",
          "type": "address"
        }
      ],
      "stateMutability": "nonpayable",
      "type": "constructor"
    },
    {
      "anonymous": false,
      "inputs": [
        {
          "indexed": true,
          "internalType": "string",
          "name": "parcelId",
          "type": "string"
        },
        {
          "indexed": true,
          "internalType": "address",
          "name": "from",
          "type": "address"
        },
        {
          "indexed": true,
          "internalType": "address",
          "name": "to",
          "type": "address"
        }
      ],
      "name": "TransferApproved",
      "type": "event"
    },
    {
      "anonymous": false,
      "inputs": [
        {
          "indexed": true,
          "internalType": "string",
          "name": "parcelId",
          "type": "string"
        }
      ],
      "name": "TransferRejected",
      "type": "event"
    },
    {
      "anonymous": false,
      "inputs": [
        {
          "indexed": true,
          "internalType": "string",
          "name": "parcelId",
          "type": "string"
        },
        {
          "indexed": true,
          "internalType": "address",
          "name": "from",
          "type": "address"
        },
        {
          "indexed": true,
          "internalType": "address",
          "name": "to",
          "type": "address"
        },
        {
          "indexed": false,
          "internalType": "uint256",
          "name": "stampDuty",
          "type": "uint256"
        }
      ],
      "name": "TransferRequested",
      "type": "event"
    },
    {
      "inputs": [
        {
          "internalType": "string",
          "name": "parcelId",
          "type": "string"
        }
      ],
      "name": "approveTransfer",
      "outputs": [],
      "stateMutability": "nonpayable",
      "type": "function"
    },
    {
      "inputs": [
        {
          "internalType": "address",
          "name": "_newRegistrar",
          "type": "address"
        }
      ],
      "name": "changeRegistrar",
      "outputs": [],
      "stateMutability": "nonpayable",
      "type": "function"
    },
    {
      "inputs": [],
      "name": "registrar",
      "outputs": [
        {
          "internalType": "address",
          "name": "",
          "type": "address"
        }
      ],
      "stateMutability": "view",
      "type": "function"
    },
    {
      "inputs": [],
      "name": "registry",
      "outputs": [
        {
          "internalType": "contract ILandRegistry",
          "name": "",
          "type": "address"
        }
      ],
      "stateMutability": "view",
      "type": "function"
    },
    {
      "inputs": [
        {
          "internalType": "string",
          "name": "parcelId",
          "type": "string"
        }
      ],
      "name": "rejectTransfer",
      "outputs": [],
      "stateMutability": "nonpayable",
      "type": "function"
    },
    {
      "inputs": [
        {
          "internalType": "string",
          "name": "parcelId",
          "type": "string"
        },
        {
          "internalType": "address",
          "name": "to",
          "type": "address"
        },
        {
          "internalType": "uint256",
          "name": "stampDuty",
          "type": "uint256"
        }
      ],
      "name": "requestTransfer",
      "outputs": [],
      "stateMutability": "nonpayable",
      "type": "function"
    },
    {
      "inputs": [
        {
          "internalType": "string",
          "name": "",
          "type": "string"
        }
      ],
      "name": "transfers",
      "outputs": [
        {
          "internalType": "string",
          "name": "parcelId",
          "type": "string"
        },
        {
          "internalType": "address",
          "name": "from",
          "type": "address"
        },
        {
          "internalType": "address",
          "name": "to",
          "type": "address"
        },
        {
          "internalType": "uint256",
          "name": "stampDuty",
          "type": "uint256"
        },
        {
          "internalType": "bool",
          "name": "active",
          "type": "bool"
        },
        {
          "internalType": "bool",
          "name": "approved",
          "type": "bool"
        }
      ],
      "stateMutability": "view",
      "type": "function"
    }
  ],
  "bytecode": "0x608060405234801561001057600080fd5b50604051610cf6380380610cf683398101604081905261002f9161005d565b600080546001600160a01b039092166001600160a01b0319928316179055600180549091163317905561008d565b60006020828403121561006f57600080fd5b81516001600160a01b038116811461008657600080fd5b9392505050565b610c5a8061009c6000396000f3fe608060405234801561001057600080fd5b506004361061007d5760003560e01c80637b1039991161005b5780637b103999146100da57806384a1c233146100ed578063a216bbfa14610112578063de2899f31461012557600080fd5b80630d8b6fd9146100825780632b20e3971461009757806376b58810146100c7575b600080fd5b6100956100903660046107ef565b610138565b005b6001546100aa906001600160a01b031681565b6040516001600160a01b0390911681526020015b60405180910390f35b6100956100d5366004610844565b610231565b6000546100aa906001600160a01b031681565b6101006100fb3660046107ef565b61027d565b6040516100be969594939291906108b8565b6100956101203660046107ef565b610359565b610095610133366004610902565b61051b565b6001546001600160a01b0316331461016b5760405162461bcd60e51b81526004016101629061095c565b60405180910390fd5b600060028260405161017d91906109a2565b908152604051908190036020019020600481015490915060ff166101e35760405162461bcd60e51b815260206004820152601a60248201527f4e6f20616374697665207472616e7366657220726571756573740000000000006044820152606401610162565b60048101805460ff191690556040516101fd9083906109a2565b604051908190038120907f1888854d82e93023b32b88b76b4238577a2582e7398806769838e029c07e011d90600090a25050565b6001546001600160a01b0316331461025b5760405162461bcd60e51b81526004016101629061095c565b600180546001600160a01b0319166001600160a01b0392909216919091179055565b80516020818301810180516002825292820191909301209152805481906102a3906109be565b80601f01602080910402602001604051908101604052809291908181526020018280546102cf906109be565b801561031c5780601f106102f15761010080835404028352916020019161031c565b820191906000526020600020905b8154815290600101906020018083116102ff57829003601f168201915b5050505060018301546002840154600385015460049095015493946001600160a01b03928316949290911692509060ff8082169161010090041686565b6001546001600160a01b031633146103835760405162461bcd60e51b81526004016101629061095c565b600060028260405161039591906109a2565b908152604051908190036020019020600481015490915060ff166103fb5760405162461bcd60e51b815260206004820152601a60248201527f4e6f20616374697665207472616e7366657220726571756573740000000000006044820152606401610162565b6004810154610100900460ff16156104485760405162461bcd60e51b815260206004820152601060248201526f105b1c9958591e48185c1c1c9bdd995960821b6044820152606401610162565b6000546002820154604051636073c9e160e11b81526001600160a01b039283169263c0e793c292610481928792909116906004016109f8565b600060405180830381600087803b15801561049b57600080fd5b505af19250505080156104ac575060015b5060048101805461ffff1916610100179055600281015460018201546040516001600160a01b039283169291909116906104e79085906109a2565b604051908190038120907f3d52f3ef0e9cea0bfc4aeb0097c26dec50160c2634ebd3a9d45bfb6da128665590600090a45050565b60008054604051634df4795360e11b81526001600160a01b0390911690639be8f2a69061054c908790600401610a22565b600060405180830381865afa158015610569573d6000803e3d6000fd5b505050506040513d6000823e601f3d908101601f191682016040526105919190810190610a7a565b505092505050336001600160a01b0316816001600160a01b0316146105f85760405162461bcd60e51b815260206004820152601d60248201527f43616c6c6572206d7573742062652070726f7065727479206f776e65720000006044820152606401610162565b6040805160c0810182528581523360208201526001600160a01b038516818301526060810184905260016080820152600060a0820152905160029061063e9087906109a2565b9081526040519081900360200190208151819061065b9082610b64565b5060208201516001820180546001600160a01b039283166001600160a01b03199182161790915560408085015160028501805491851691909316179091556060840151600384015560808401516004909301805460a09095015115156101000261ff00199415159490941661ffff199095169490941792909217909255519084169033906106ea9087906109a2565b604051908190038120858252907f72d702bb5c201de4762494d522dac7d231acaf2ac1cda9a7e3dae93ff50710849060200160405180910390a450505050565b634e487b7160e01b600052604160045260246000fd5b604051601f8201601f1916810167ffffffffffffffff811182821017156107695761076961072a565b604052919050565b600067ffffffffffffffff82111561078b5761078b61072a565b50601f01601f191660200190565b600082601f8301126107aa57600080fd5b81356107bd6107b882610771565b610740565b8181528460208386010111156107d257600080fd5b816020850160208301376000918101602001919091529392505050565b60006020828403121561080157600080fd5b813567ffffffffffffffff81111561081857600080fd5b61082484828501610799565b949350505050565b6001600160a01b038116811461084157600080fd5b50565b60006020828403121561085657600080fd5b81356108618161082c565b9392505050565b60005b8381101561088357818101518382015260200161086b565b50506000910152565b600081518084526108a4816020860160208601610868565b601f01601f19169290920160200192915050565b60c0815260006108cb60c083018961088c565b6001600160a01b03978816602084015295909616604082015260608101939093529015156080830152151560a09091015292915050565b60008060006060848603121561091757600080fd5b833567ffffffffffffffff81111561092e57600080fd5b61093a86828701610799565b935050602084013561094b8161082c565b929592945050506040919091013590565b60208082526026908201527f4f6e6c79207265676973747261722063616e20706572666f726d20746869732060408201526530b1ba34b7b760d11b606082015260800190565b600082516109b4818460208701610868565b9190910192915050565b600181811c908216806109d257607f821691505b6020821081036109f257634e487b7160e01b600052602260045260246000fd5b50919050565b604081526000610a0b604083018561088c565b905060018060a01b03831660208301529392505050565b602081526000610861602083018461088c565b600082601f830112610a4657600080fd5b8151610a546107b882610771565b818152846020838601011115610a6957600080fd5b610824826020830160208701610868565b600080600080600060a08688031215610a9257600080fd5b855167ffffffffffffffff80821115610aaa57600080fd5b610ab689838a01610a35565b96506020880151915080821115610acc57600080fd5b50610ad988828901610a35565b9450506040860151610aea8161082c565b6060870151608088015191945092508015158114610b0757600080fd5b809150509295509295909350565b601f821115610b5f57600081815260208120601f850160051c81016020861015610b3c5750805b601f850160051c820191505b81811015610b5b57828155600101610b48565b5050505b505050565b815167ffffffffffffffff811115610b7e57610b7e61072a565b610b9281610b8c84546109be565b84610b15565b602080601f831160018114610bc75760008415610baf5750858301515b600019600386901b1c1916600185901b178555610b5b565b600085815260208120601f198616915b82811015610bf657888601518255948401946001909101908401610bd7565b5085821015610c145787850151600019600388901b60f8161c191681555b5050505050600190811b0190555056fea26469706673582212205f891137abf08e488fa03a0f27c698b2016a14f9439a5571e7ddbcabefcd634364736f6c63430008140033",
  "linkReferences": {},
  "deployedLinkReferences": {}
}