{
  "_format": "hh-sol-artifact-1",
  "contractName": "PropertyTransfer",
  "sourceName": "contracts/PropertyTransfer.sol",
  "abi": [
    {
      "inputs": [
        {
          "internalType": "address",
          "name": "_registry",
          "type": "address"
        }
      ],
      "stateMutability": "nonpayable",
      "type": "constructor"
    },
    {
      "anonymous": false,
      "inputs": [
        {
          "indexed": true,
          "internalType": "string",
          "name": "parcelId",
          "type": "string"
        },
        {
          "indexed": true,
          "internalType": "address",
          "name": "from",
          "type": "address"
        },
        {
          "indexed": true,
          "internalType": "address",
          "name": "to",
          "type": "address"
        }
      ],
      "name": "TransferApproved",
      "type": "event"
    },
    {
      "anonymous": false,
      "inputs": [
        {
          "indexed": true,
          "internalType": "string",
          "name": "parcelId",
          "type": "string"
        }
      ],
      "name": "TransferRejected",
      "type": "event"
    },
    {
      "anonymous": false,
      "inputs": [
        {
          "indexed": true,
          "internalType": "string",
          "name": "parcelId",
          "type": "string"
        },
        {
          "indexed": true,
          "internalType": "address",
          "name": "from",
          "type": "address"
        },
        {
          "indexed": true,
          "internalType": "address",
          "name": "to",
          "type": "address"
        },
        {
          "indexed": false,
          "internalType": "uint256",
          "name": "stampDuty",
          "type": "uint256"
        }
      ],
      "name": "TransferRequested",
      "type": "event"
    },
    {
      "inputs": [
        {
          "internalType": "string",
          "name": "parcelId",
          "type": "string"
        }
      ],
      "name": "approveTransfer",
      "outputs": [],
      "stateMutability": "nonpayable",
      "type": "function"
    },
    {
      "inputs": [
        {
          "internalType": "address",
          "name": "_newRegistrar",
          "type": "address"
        }
      ],
      "name": "changeRegistrar",
      "outputs": [],
      "stateMutability": "nonpayable",
      "type": "function"
    },
    {
      "inputs": [],
      "name": "registrar",
      "outputs": [
        {
          "internalType": "address",
          "name": "",
          "type": "address"
        }
      ],
      "stateMutability": "view",
      "type": "function"
    },
    {
      "inputs": [],
      "name": "registry",
      "outputs": [
        {
          "internalType": "contract ILandRegistry",
          "name": "",
          "type": "address"
        }
      ],
      "stateMutability": "view",
      "type": "function"
    },
    {
      "inputs": [
        {
          "internalType": "string",
          "name": "parcelId",
          "type": "string"
        }
      ],
      "name": "rejectTransfer",
      "outputs": [],
      "stateMutability": "nonpayable",
      "type": "function"
    },
    {
      "inputs": [
        {
          "internalType": "string",
          "name": "parcelId",
          "type": "string"
        },
        {
          "internalType": "address",
          "name": "to",
          "type": "address"
        },
        {
          "internalType": "uint256",
          "name": "stampDuty",
          "type": "uint256"
        }
      ],
      "name": "requestTransfer",
      "outputs": [],
      "stateMutability": "nonpayable",
      "type": "function"
    },
    {
      "inputs": [
        {
          "internalType": "string",
          "name": "",
          "type": "string"
        }
      ],
      "name": "transfers",
      "outputs": [
        {
          "internalType": "string",
          "name": "parcelId",
          "type": "string"
        },
        {
          "internalType": "address",
          "name": "from",
          "type": "address"
        },
        {
          "internalType": "address",
          "name": "to",
          "type": "address"
        },
        {
          "internalType": "uint256",
          "name": "stampDuty",
          "type": "uint256"
        },
        {
          "internalType": "bool",
          "name": "active",
          "type": "bool"
        },
        {
          "internalType": "bool",
          "name": "approved",
          "type": "bool"
        }
      ],
      "stateMutability": "view",
      "type": "function"
    }
  ],
  "bytecode": "0x608060405234801561000f575f80fd5b50604051610cb3380380610cb383398101604081905261002e9161005b565b5f80546001600160a01b039092166001600160a01b03199283161790556001805490911633179055610088565b5f6020828403121561006b575f80fd5b81516001600160a01b0381168114610081575f80fd5b9392505050565b610c1e806100955f395ff3fe608060405234801561000f575f80fd5b506004361061007a575f3560e01c80637b103999116100585780637b103999146100d657806384a1c233146100e8578063a216bbfa1461010d578063de2899f314610120575f80fd5b80630d8b6fd91461007e5780632b20e3971461009357806376b58810146100c3575b5f80fd5b61009161008c3660046107d3565b610133565b005b6001546100a6906001600160a01b031681565b6040516001600160a01b0390911681526020015b60405180910390f35b6100916100d1366004610824565b61022a565b5f546100a6906001600160a01b031681565b6100fb6100f63660046107d3565b610276565b6040516100ba96959493929190610893565b61009161011b3660046107d3565b610350565b61009161012e3660046108dc565b61050c565b6001546001600160a01b031633146101665760405162461bcd60e51b815260040161015d90610932565b60405180910390fd5b5f6002826040516101779190610978565b908152604051908190036020019020600481015490915060ff166101dd5760405162461bcd60e51b815260206004820152601a60248201527f4e6f20616374697665207472616e736665722072657175657374000000000000604482015260640161015d565b60048101805460ff191690556040516101f7908390610978565b604051908190038120907f1888854d82e93023b32b88b76b4238577a2582e7398806769838e029c07e011d905f90a25050565b6001546001600160a01b031633146102545760405162461bcd60e51b815260040161015d90610932565b600180546001600160a01b0319166001600160a01b0392909216919091179055565b805160208183018101805160028252928201919093012091528054819061029c90610993565b80601f01602080910402602001604051908101604052809291908181526020018280546102c890610993565b80156103135780601f106102ea57610100808354040283529160200191610313565b820191905f5260205f20905b8154815290600101906020018083116102f657829003601f168201915b5050505060018301546002840154600385015460049095015493946001600160a01b03928316949290911692509060ff8082169161010090041686565b6001546001600160a01b0316331461037a5760405162461bcd60e51b815260040161015d90610932565b5f60028260405161038b9190610978565b908152604051908190036020019020600481015490915060ff166103f15760405162461bcd60e51b815260206004820152601a60248201527f4e6f20616374697665207472616e736665722072657175657374000000000000604482015260640161015d565b6004810154610100900460ff161561043e5760405162461bcd60e51b815260206004820152601060248201526f105b1c9958591e48185c1c1c9bdd995960821b604482015260640161015d565b5f546002820154604051636073c9e160e11b81526001600160a01b039283169263c0e793c292610476928792909116906004016109cb565b5f604051808303815f87803b15801561048d575f80fd5b505af192505050801561049e575060015b5060048101805461ffff1916610100179055600281015460018201546040516001600160a01b039283169291909116906104d9908590610978565b604051908190038120907f3d52f3ef0e9cea0bfc4aeb0097c26dec50160c2634ebd3a9d45bfb6da1286655905f90a45050565b5f8054604051634df4795360e11b81526001600160a01b0390911690639be8f2a69061053c9087906004016109f4565b5f60405180830381865afa158015610556573d5f803e3d5ffd5b505050506040513d5f823e601f3d908101601f1916820160405261057d9190810190610a48565b505092505050336001600160a01b0316816001600160a01b0316146105e45760405162461bcd60e51b815260206004820152601d60248201527f43616c6c6572206d7573742062652070726f7065727479206f776e6572000000604482015260640161015d565b6040805160c0810182528581523360208201526001600160a01b0385168183015260608101849052600160808201525f60a08201529051600290610629908790610978565b908152604051908190036020019020815181906106469082610b28565b5060208201516001820180546001600160a01b039283166001600160a01b03199182161790915560408085015160028501805491851691909316179091556060840151600384015560808401516004909301805460a09095015115156101000261ff00199415159490941661ffff199095169490941792909217909255519084169033906106d5908790610978565b604051908190038120858252907f72d702bb5c201de4762494d522dac7d231acaf2ac1cda9a7e3dae93ff50710849060200160405180910390a450505050565b634e487b7160e01b5f52604160045260245ffd5b604051601f8201601f1916810167ffffffffffffffff8111828210171561075257610752610715565b604052919050565b5f67ffffffffffffffff82111561077357610773610715565b50601f01601f191660200190565b5f82601f830112610790575f80fd5b81356107a361079e8261075a565b610729565b8181528460208386010111156107b7575f80fd5b816020850160208301375f918101602001919091529392505050565b5f602082840312156107e3575f80fd5b813567ffffffffffffffff8111156107f9575f80fd5b61080584828501610781565b949350505050565b6001600160a01b0381168114610821575f80fd5b50565b5f60208284031215610834575f80fd5b813561083f8161080d565b9392505050565b5f5b83811015610860578181015183820152602001610848565b50505f910152565b5f815180845261087f816020860160208601610846565b601f01601f19169290920160200192915050565b60c081525f6108a560c0830189610868565b6001600160a01b03978816602084015295909616604082015260608101939093529015156080830152151560a09091015292915050565b5f805f606084860312156108ee575f80fd5b833567ffffffffffffffff811115610904575f80fd5b61091086828701610781565b93505060208401356109218161080d565b929592945050506040919091013590565b60208082526026908201527f4f6e6c79207265676973747261722063616e20706572666f726d20746869732060408201526530b1ba34b7b760d11b606082015260800190565b5f8251610989818460208701610846565b9190910192915050565b600181811c908216806109a757607f821691505b6020821081036109c557634e487b7160e01b5f52602260045260245ffd5b50919050565b604081525f6109dd6040830185610868565b905060018060a01b03831660208301529392505050565b602081525f61083f6020830184610868565b5f82601f830112610a15575f80fd5b8151610a2361079e8261075a565b818152846020838601011115610a37575f80fd5b610805826020830160208701610846565b5f805f805f60a08688031215610a5c575f80fd5b855167ffffffffffffffff80821115610a73575f80fd5b610a7f89838a01610a06565b96506020880151915080821115610a94575f80fd5b50610aa188828901610a06565b9450506040860151610ab28161080d565b6060870151608088015191945092508015158114610ace575f80fd5b809150509295509295909350565b601f821115610b2357805f5260205f20601f840160051c81016020851015610b015750805b601f840160051c820191505b81811015610b20575f8155600101610b0d565b50505b505050565b815167ffffffffffffffff811115610b4257610b42610715565b610b5681610b508454610993565b84610adc565b602080601f831160018114610b89575f8415610b725750858301515b5f19600386901b1c1916600185901b178555610be0565b5f85815260208120601f198616915b82811015610bb757888601518255948401946001909101908401610b98565b5085821015610bd457878501515f19600388901b60f8161c191681555b505060018460011b0185555b50505050505056fea2646970667358221220a9072a326c39de60c0463d38acdd1ca072fd23b0b33e6564d8fe46d318da1f5664736f6c63430008180033",
  "linkReferences": {},
  "deployedLinkReferences": {}
}