{
  "_format": "hh-sol-artifact-1",
  "contractName": "LandRegistry",
  "sourceName": "contracts/LandRegistry.sol",
  "abi": [
    {
      "anonymous": false,
      "inputs": [
        {
          "indexed": false,
          "internalType": "string",
          "name": "parcelId",
          "type": "string"
        },
        {
          "indexed": false,
          "internalType": "address",
          "name": "from",
          "type": "address"
        },
        {
          "indexed": false,
          "internalType": "address",
          "name": "to",
          "type": "address"
        }
      ],
      "name": "OwnershipTransferred",
      "type": "event"
    },
    {
      "anonymous": false,
      "inputs": [
        {
          "indexed": false,
          "internalType": "string",
          "name": "parcelId",
          "type": "string"
        },
        {
          "indexed": false,
          "internalType": "address",
          "name": "owner",
          "type": "address"
        },
        {
          "indexed": false,
          "internalType": "string",
          "name": "ipfsHash",
          "type": "string"
        }
      ],
      "name": "PropertyRegistered",
      "type": "event"
    },
    {
      "inputs": [
        {
          "internalType": "address",
          "name": "",
          "type": "address"
        },
        {
          "internalType": "uint256",
          "name": "",
          "type": "uint256"
        }
      ],
      "name": "ownerProperties",
      "outputs": [
        {
          "internalType": "string",
          "name": "",
          "type": "string"
        }
      ],
      "stateMutability": "view",
      "type": "function"
    },
    {
      "inputs": [
        {
          "internalType": "string",
          "name": "",
          "type": "string"
        }
      ],
      "name": "properties",
      "outputs": [
        {
          "internalType": "string",
          "name": "parcelId",
          "type": "string"
        },
        {
          "internalType": "string",
          "name": "ipfsHash",
          "type": "string"
        },
        {
          "internalType": "address",
          "name": "owner",
          "type": "address"
        },
        {
          "internalType": "uint256",
          "name": "registeredAt",
          "type": "uint256"
        },
        {
          "internalType": "bool",
          "name": "active",
          "type": "bool"
        }
      ],
      "stateMutability": "view",
      "type": "function"
    },
    {
      "inputs": [
        {
          "internalType": "string",
          "name": "parcelId",
          "type": "string"
        },
        {
          "internalType": "string",
          "name": "ipfsHash",
          "type": "string"
        }
      ],
      "name": "registerProperty",
      "outputs": [],
      "stateMutability": "nonpayable",
      "type": "function"
    },
    {
      "inputs": [
        {
          "internalType": "string",
          "name": "parcelId",
          "type": "string"
        },
        {
          "internalType": "address",
          "name": "newOwner",
          "type": "address"
        }
      ],
      "name": "transferOwnership",
      "outputs": [],
      "stateMutability": "nonpayable",
      "type": "function"
    },
    {
      "inputs": [
        {
          "internalType": "string",
          "name": "parcelId",
          "type": "string"
        },
        {
          "internalType": "address",
          "name": "claimedOwner",
          "type": "address"
        }
      ],
      "name": "verifyOwner",
      "outputs": [
        {
          "internalType": "bool",
          "name": "",
          "type": "bool"
        }
      ],
      "stateMutability": "view",
      "type": "function"
    }
  ],
  "bytecode": "0x608060405234801561001057600080fd5b50610aaa806100206000396000f3fe608060405234801561001057600080fd5b50600436106100575760003560e01c80631b0f8ea81461005c5780638f48bd5b146100715780639be8f2a61461009a5780639facb0d8146100be578063c0e793c2146100e1575b600080fd5b61006f61006a3660046106b1565b6100f4565b005b61008461007f366004610731565b61027a565b60405161009191906107ab565b60405180910390f35b6100ad6100a83660046107c5565b610333565b604051610091959493929190610802565b6100d16100cc366004610850565b61048b565b6040519015158152602001610091565b61006f6100ef366004610850565b6104cc565b600082604051610104919061089e565b90815260200160405180910390206003015460001461015f5760405162461bcd60e51b8152602060048201526012602482015271105b1c9958591e481c9959da5cdd195c995960721b60448201526064015b60405180910390fd5b6040805160a08101825283815260208101839052338183015242606082015260016080820152905160009061019590859061089e565b908152604051908190036020019020815181906101b29082610943565b50602082015160018201906101c79082610943565b506040828101516002830180546001600160a01b0319166001600160a01b03909216919091179055606083015160038301556080909201516004909101805460ff1916911515919091179055336000908152600160208181529282208054918201815582529190200161023a8382610943565b507ff6d395ca84bfb4a29eac318d6f1eec71962a2a3a5d848822383ab08bf67c067c82338360405161026e93929190610a03565b60405180910390a15050565b6001602052816000526040600020818154811061029657600080fd5b906000526020600020016000915091505080546102b2906108ba565b80601f01602080910402602001604051908101604052809291908181526020018280546102de906108ba565b801561032b5780601f106103005761010080835404028352916020019161032b565b820191906000526020600020905b81548152906001019060200180831161030e57829003601f168201915b505050505081565b8051602081830181018051600082529282019190930120915280548190610359906108ba565b80601f0160208091040260200160405190810160405280929190818152602001828054610385906108ba565b80156103d25780601f106103a7576101008083540402835291602001916103d2565b820191906000526020600020905b8154815290600101906020018083116103b557829003601f168201915b5050505050908060010180546103e7906108ba565b80601f0160208091040260200160405190810160405280929190818152602001828054610413906108ba565b80156104605780601f1061043557610100808354040283529160200191610460565b820191906000526020600020905b81548152906001019060200180831161044357829003601f168201915b505050506002830154600384015460049094015492936001600160a01b039091169290915060ff1685565b6000816001600160a01b03166000846040516104a7919061089e565b908152604051908190036020019020600201546001600160a01b031614905092915050565b600080836040516104dd919061089e565b90815260405190819003602001902060028101549091506001600160a01b031633146105375760405162461bcd60e51b81526020600482015260096024820152682737ba1037bbb732b960b91b6044820152606401610156565b600481015460ff166105815760405162461bcd60e51b815260206004820152601360248201527250726f7065727479206e6f742061637469766560681b6044820152606401610156565b6002810180546001600160a01b038481166001600160a01b03198316811790935560009283526001602081815260408520805492830181558552909320911691016105cc8582610943565b507f6840904f5b31827f74e1497360da245f56e530c8c3de3163a2d31f11493273c684828560405161060093929190610a41565b60405180910390a150505050565b634e487b7160e01b600052604160045260246000fd5b600082601f83011261063557600080fd5b813567ffffffffffffffff808211156106505761065061060e565b604051601f8301601f19908116603f011681019082821181831017156106785761067861060e565b8160405283815286602085880101111561069157600080fd5b836020870160208301376000602085830101528094505050505092915050565b600080604083850312156106c457600080fd5b823567ffffffffffffffff808211156106dc57600080fd5b6106e886838701610624565b935060208501359150808211156106fe57600080fd5b5061070b85828601610624565b9150509250929050565b80356001600160a01b038116811461072c57600080fd5b919050565b6000806040838503121561074457600080fd5b61074d83610715565b946020939093013593505050565b60005b8381101561077657818101518382015260200161075e565b50506000910152565b6000815180845261079781602086016020860161075b565b601f01601f19169290920160200192915050565b6020815260006107be602083018461077f565b9392505050565b6000602082840312156107d757600080fd5b813567ffffffffffffffff8111156107ee57600080fd5b6107fa84828501610624565b949350505050565b60a08152600061081560a083018861077f565b8281036020840152610827818861077f565b6001600160a01b0396909616604084015250506060810192909252151560809091015292915050565b6000806040838503121561086357600080fd5b823567ffffffffffffffff81111561087a57600080fd5b61088685828601610624565b92505061089560208401610715565b90509250929050565b600082516108b081846020870161075b565b9190910192915050565b600181811c908216806108ce57607f821691505b6020821081036108ee57634e487b7160e01b600052602260045260246000fd5b50919050565b601f82111561093e57600081815260208120601f850160051c8101602086101561091b5750805b601f850160051c820191505b8181101561093a57828155600101610927565b5050505b505050565b815167ffffffffffffffff81111561095d5761095d61060e565b6109718161096b84546108ba565b846108f4565b602080601f8311600181146109a6576000841561098e5750858301515b600019600386901b1c1916600185901b17855561093a565b600085815260208120601f198616915b828110156109d5578886015182559484019460019091019084016109b6565b50858210156109f35787850151600019600388901b60f8161c191681555b5050505050600190811b01905550565b606081526000610a16606083018661077f565b6001600160a01b03851660208401528281036040840152610a37818561077f565b9695505050505050565b606081526000610a54606083018661077f565b6001600160a01b039485166020840152929093166040909101529291505056fea26469706673582212200f4c458ca3e71f538fda64e582a08f492cf7364e5d02c207e4d9acde417d351164736f6c63430008140033",
  "linkReferences": {},
  "deployedLinkReferences": {}
}