{
  "_format": "hh-sol-artifact-1",
  "contractName": "LandRegistry",
  "sourceName": "contracts/LandRegistry.sol",
  "abi": [
    {
      "inputs": [],
      "stateMutability": "nonpayable",
      "type": "constructor"
    },
    {
      "anonymous": false,
      "inputs": [
        {
          "indexed": false,
          "internalType": "string",
          "name": "parcelId",
          "type": "string"
        },
        {
          "indexed": false,
          "internalType": "address",
          "name": "from",
          "type": "address"
        },
        {
          "indexed": false,
          "internalType": "address",
          "name": "to",
          "type": "address"
        }
      ],
      "name": "OwnershipTransferred",
      "type": "event"
    },
    {
      "anonymous": false,
      "inputs": [
        {
          "indexed": false,
          "internalType": "string",
          "name": "parcelId",
          "type": "string"
        },
        {
          "indexed": false,
          "internalType": "address",
          "name": "owner",
          "type": "address"
        },
        {
          "indexed": false,
          "internalType": "string",
          "name": "ipfsHash",
          "type": "string"
        }
      ],
      "name": "PropertyRegistered",
      "type": "event"
    },
    {
      "anonymous": false,
      "inputs": [
        {
          "indexed": false,
          "internalType": "string",
          "name": "parcelId",
          "type": "string"
        },
        {
          "indexed": false,
          "internalType": "enum LandRegistry.PropertyStatus",
          "name": "status",
          "type": "uint8"
        }
      ],
      "name": "PropertyStatusChanged",
      "type": "event"
    },
    {
      "anonymous": false,
      "inputs": [
        {
          "indexed": false,
          "internalType": "string",
          "name": "parcelId",
          "type": "string"
        },
        {
          "indexed": false,
          "internalType": "string",
          "name": "verdictIpfsHash",
          "type": "string"
        }
      ],
      "name": "VerdictRecorded",
      "type": "event"
    },
    {
      "inputs": [],
      "name": "admin",
      "outputs": [
        {
          "internalType": "address",
          "name": "",
          "type": "address"
        }
      ],
      "stateMutability": "view",
      "type": "function"
    },
    {
      "inputs": [
        {
          "internalType": "address",
          "name": "_newAdmin",
          "type": "address"
        }
      ],
      "name": "changeAdmin",
      "outputs": [],
      "stateMutability": "nonpayable",
      "type": "function"
    },
    {
      "inputs": [
        {
          "internalType": "string",
          "name": "parcelId",
          "type": "string"
        }
      ],
      "name": "disputeProperty",
      "outputs": [],
      "stateMutability": "nonpayable",
      "type": "function"
    },
    {
      "inputs": [
        {
          "internalType": "string",
          "name": "parcelId",
          "type": "string"
        }
      ],
      "name": "freezeProperty",
      "outputs": [],
      "stateMutability": "nonpayable",
      "type": "function"
    },
    {
      "inputs": [
        {
          "internalType": "string",
          "name": "parcelId",
          "type": "string"
        }
      ],
      "name": "litigateProperty",
      "outputs": [],
      "stateMutability": "nonpayable",
      "type": "function"
    },
    {
      "inputs": [
        {
          "internalType": "address",
          "name": "",
          "type": "address"
        },
        {
          "internalType": "uint256",
          "name": "",
          "type": "uint256"
        }
      ],
      "name": "ownerProperties",
      "outputs": [
        {
          "internalType": "string",
          "name": "",
          "type": "string"
        }
      ],
      "stateMutability": "view",
      "type": "function"
    },
    {
      "inputs": [
        {
          "internalType": "string",
          "name": "",
          "type": "string"
        }
      ],
      "name": "properties",
      "outputs": [
        {
          "internalType": "string",
          "name": "parcelId",
          "type": "string"
        },
        {
          "internalType": "string",
          "name": "ipfsHash",
          "type": "string"
        },
        {
          "internalType": "address",
          "name": "owner",
          "type": "address"
        },
        {
          "internalType": "uint256",
          "name": "registeredAt",
          "type": "uint256"
        },
        {
          "internalType": "bool",
          "name": "active",
          "type": "bool"
        }
      ],
      "stateMutability": "view",
      "type": "function"
    },
    {
      "inputs": [
        {
          "internalType": "string",
          "name": "",
          "type": "string"
        }
      ],
      "name": "propertyStatus",
      "outputs": [
        {
          "internalType": "enum LandRegistry.PropertyStatus",
          "name": "",
          "type": "uint8"
        }
      ],
      "stateMutability": "view",
      "type": "function"
    },
    {
      "inputs": [
        {
          "internalType": "string",
          "name": "",
          "type": "string"
        }
      ],
      "name": "propertyVerdicts",
      "outputs": [
        {
          "internalType": "string",
          "name": "",
          "type": "string"
        }
      ],
      "stateMutability": "view",
      "type": "function"
    },
    {
      "inputs": [
        {
          "internalType": "string",
          "name": "parcelId",
          "type": "string"
        },
        {
          "internalType": "string",
          "name": "verdictIpfsHash",
          "type": "string"
        }
      ],
      "name": "recordVerdict",
      "outputs": [],
      "stateMutability": "nonpayable",
      "type": "function"
    },
    {
      "inputs": [
        {
          "internalType": "string",
          "name": "parcelId",
          "type": "string"
        },
        {
          "internalType": "string",
          "name": "ipfsHash",
          "type": "string"
        }
      ],
      "name": "registerProperty",
      "outputs": [],
      "stateMutability": "nonpayable",
      "type": "function"
    },
    {
      "inputs": [
        {
          "internalType": "string",
          "name": "parcelId",
          "type": "string"
        },
        {
          "internalType": "address",
          "name": "newOwner",
          "type": "address"
        }
      ],
      "name": "transferOwnership",
      "outputs": [],
      "stateMutability": "nonpayable",
      "type": "function"
    },
    {
      "inputs": [
        {
          "internalType": "string",
          "name": "parcelId",
          "type": "string"
        }
      ],
      "name": "unfreezeProperty",
      "outputs": [],
      "stateMutability": "nonpayable",
      "type": "function"
    },
    {
      "inputs": [
        {
          "internalType": "string",
          "name": "parcelId",
          "type": "string"
        },
        {
          "internalType": "address",
          "name": "claimedOwner",
          "type": "address"
        }
      ],
      "name": "verifyOwner",
      "outputs": [
        {
          "internalType": "bool",
          "name": "",
          "type": "bool"
        }
      ],
      "stateMutability": "view",
      "type": "function"
    }
  ],
  "bytecode": "0x608060405234801561000f575f80fd5b50600480546001600160a01b031916331790556113048061002f5f395ff3fe608060405234801561000f575f80fd5b50600436106100e5575f3560e01c80638f283970116100885780639facb0d8116100635780639facb0d8146101f8578063a0ef33cb1461021b578063c0e793c21461022e578063f851a44014610241575f80fd5b80638f283970146101a15780638f48bd5b146101b45780639be8f2a6146101d4575f80fd5b80633541d13a116100c35780633541d13a146101245780633f0a3cac146101375780634b7fb8591461017b5780636813ab251461018e575f80fd5b80630a3314d3146100e95780631b0f8ea8146100fe5780631d7abe1614610111575b5f80fd5b6100fc6100f7366004610e01565b61026c565b005b6100fc61010c366004610e3b565b61037a565b6100fc61011f366004610e01565b610538565b6100fc610132366004610e01565b610632565b610165610145366004610e01565b805160208183018101805160028252928201919093012091525460ff1681565b6040516101729190610ecf565b60405180910390f35b6100fc610189366004610e3b565b61072d565b6100fc61019c366004610e01565b6107f3565b6100fc6101af366004610ef8565b6108ee565b6101c76101c2366004610f18565b61093a565b6040516101729190610f8d565b6101e76101e2366004610e01565b6109eb565b604051610172959493929190610f9f565b61020b610206366004610fec565b610b3e565b6040519015158152602001610172565b6101c7610229366004610e01565b610b7e565b6100fc61023c366004610fec565b610ba2565b600454610254906001600160a01b031681565b6040516001600160a01b039091168152602001610172565b6004546001600160a01b0316331461029f5760405162461bcd60e51b815260040161029690611037565b60405180910390fd5b5f80826040516102af919061105b565b908152602001604051809103902060030154116102de5760405162461bcd60e51b815260040161029690611076565b60015f826040516102ef919061105b565b908152604051908190036020018120600401805492151560ff19909316929092179091555f9060029061032390849061105b565b908152604051908190036020019020805460ff1916600183600381111561034c5761034c610e9b565b02179055505f805160206112af833981519152815f60405161036f9291906110ad565b60405180910390a150565b5f82604051610389919061105b565b9081526020016040518091039020600301545f146103de5760405162461bcd60e51b8152602060048201526012602482015271105b1c9958591e481c9959da5cdd195c995960721b6044820152606401610296565b6040805160a0810182528381526020810183905233818301524260608201526001608082015290515f9061041390859061105b565b908152604051908190036020019020815181906104309082611152565b50602082015160018201906104459082611152565b50604082810151600283810180546001600160a01b0319166001600160a01b0390931692909217909155606084015160038401556080909301516004909201805460ff191692151592909217909155515f91906104a390859061105b565b908152604051908190036020019020805460ff191660018360038111156104cc576104cc610e9b565b0217905550335f9081526001602081815260408320805492830181558352909120016104f88382611152565b507ff6d395ca84bfb4a29eac318d6f1eec71962a2a3a5d848822383ab08bf67c067c82338360405161052c93929190611212565b60405180910390a15050565b6004546001600160a01b031633146105625760405162461bcd60e51b815260040161029690611037565b5f8082604051610572919061105b565b908152602001604051809103902060030154116105a15760405162461bcd60e51b815260040161029690611076565b5f80826040516105b1919061105b565b908152604051908190036020018120600401805492151560ff199093169290921790915560029081906105e590849061105b565b908152604051908190036020019020805460ff1916600183600381111561060e5761060e610e9b565b02179055505f805160206112af83398151915281600260405161036f9291906110ad565b6004546001600160a01b0316331461065c5760405162461bcd60e51b815260040161029690611037565b5f808260405161066c919061105b565b9081526020016040518091039020600301541161069b5760405162461bcd60e51b815260040161029690611076565b5f80826040516106ab919061105b565b908152604051908190036020018120600401805492151560ff19909316929092179091556003906002906106e090849061105b565b908152604051908190036020019020805460ff1916600183600381111561070957610709610e9b565b02179055505f805160206112af83398151915281600360405161036f9291906110ad565b6004546001600160a01b031633146107575760405162461bcd60e51b815260040161029690611037565b5f8083604051610767919061105b565b908152602001604051809103902060030154116107965760405162461bcd60e51b815260040161029690611076565b806003836040516107a7919061105b565b908152602001604051809103902090816107c19190611152565b507f9f79b9c246de389cfa6988782fcb88f6961a3d779b1d1efbf3810788f16f9b0d828260405161052c92919061124f565b6004546001600160a01b0316331461081d5760405162461bcd60e51b815260040161029690611037565b5f808260405161082d919061105b565b9081526020016040518091039020600301541161085c5760405162461bcd60e51b815260040161029690611076565b5f808260405161086c919061105b565b908152604051908190036020018120600401805492151560ff19909316929092179091556001906002906108a190849061105b565b908152604051908190036020019020805460ff191660018360038111156108ca576108ca610e9b565b02179055505f805160206112af83398151915281600160405161036f9291906110ad565b6004546001600160a01b031633146109185760405162461bcd60e51b815260040161029690611037565b600480546001600160a01b0319166001600160a01b0392909216919091179055565b6001602052815f5260405f208181548110610953575f80fd5b905f5260205f20015f9150915050805461096c906110ce565b80601f0160208091040260200160405190810160405280929190818152602001828054610998906110ce565b80156109e35780601f106109ba576101008083540402835291602001916109e3565b820191905f5260205f20905b8154815290600101906020018083116109c657829003601f168201915b505050505081565b80516020818301810180515f82529282019190930120915280548190610a10906110ce565b80601f0160208091040260200160405190810160405280929190818152602001828054610a3c906110ce565b8015610a875780601f10610a5e57610100808354040283529160200191610a87565b820191905f5260205f20905b815481529060010190602001808311610a6a57829003601f168201915b505050505090806001018054610a9c906110ce565b80601f0160208091040260200160405190810160405280929190818152602001828054610ac8906110ce565b8015610b135780601f10610aea57610100808354040283529160200191610b13565b820191905f5260205f20905b815481529060010190602001808311610af657829003601f168201915b505050506002830154600384015460049094015492936001600160a01b039091169290915060ff1685565b5f816001600160a01b03165f84604051610b58919061105b565b908152604051908190036020019020600201546001600160a01b03161490505b92915050565b80516020818301810180516003825292820191909301209152805461096c906110ce565b5f8083604051610bb2919061105b565b90815260405190819003602001902060028101549091506001600160a01b03163314610c0c5760405162461bcd60e51b81526020600482015260096024820152682737ba1037bbb732b960b91b6044820152606401610296565b600481015460ff16610c565760405162461bcd60e51b815260206004820152601360248201527250726f7065727479206e6f742061637469766560681b6044820152606401610296565b5f600284604051610c67919061105b565b9081526040519081900360200190205460ff166003811115610c8b57610c8b610e9b565b14610cd85760405162461bcd60e51b815260206004820152601d60248201527f50726f706572747920737461747573206973206e6f74204143544956450000006044820152606401610296565b6002810180546001600160a01b038481166001600160a01b0319831681179093555f928352600160208181526040852080549283018155855290932091169101610d228582611152565b507f6840904f5b31827f74e1497360da245f56e530c8c3de3163a2d31f11493273c6848285604051610d569392919061127c565b60405180910390a150505050565b634e487b7160e01b5f52604160045260245ffd5b5f82601f830112610d87575f80fd5b813567ffffffffffffffff80821115610da257610da2610d64565b604051601f8301601f19908116603f01168101908282118183101715610dca57610dca610d64565b81604052838152866020858801011115610de2575f80fd5b836020870160208301375f602085830101528094505050505092915050565b5f60208284031215610e11575f80fd5b813567ffffffffffffffff811115610e27575f80fd5b610e3384828501610d78565b949350505050565b5f8060408385031215610e4c575f80fd5b823567ffffffffffffffff80821115610e63575f80fd5b610e6f86838701610d78565b93506020850135915080821115610e84575f80fd5b50610e9185828601610d78565b9150509250929050565b634e487b7160e01b5f52602160045260245ffd5b60048110610ecb57634e487b7160e01b5f52602160045260245ffd5b9052565b60208101610b788284610eaf565b80356001600160a01b0381168114610ef3575f80fd5b919050565b5f60208284031215610f08575f80fd5b610f1182610edd565b9392505050565b5f8060408385031215610f29575f80fd5b610f3283610edd565b946020939093013593505050565b5f5b83811015610f5a578181015183820152602001610f42565b50505f910152565b5f8151808452610f79816020860160208601610f40565b601f01601f19169290920160200192915050565b602081525f610f116020830184610f62565b60a081525f610fb160a0830188610f62565b8281036020840152610fc38188610f62565b6001600160a01b0396909616604084015250506060810192909252151560809091015292915050565b5f8060408385031215610ffd575f80fd5b823567ffffffffffffffff811115611013575f80fd5b61101f85828601610d78565b92505061102e60208401610edd565b90509250929050565b6020808252600a908201526927b7363c9030b236b4b760b11b604082015260600190565b5f825161106c818460208701610f40565b9190910192915050565b60208082526017908201527f50726f7065727479206e6f742072656769737465726564000000000000000000604082015260600190565b604081525f6110bf6040830185610f62565b9050610f116020830184610eaf565b600181811c908216806110e257607f821691505b60208210810361110057634e487b7160e01b5f52602260045260245ffd5b50919050565b601f82111561114d57805f5260205f20601f840160051c8101602085101561112b5750805b601f840160051c820191505b8181101561114a575f8155600101611137565b50505b505050565b815167ffffffffffffffff81111561116c5761116c610d64565b6111808161117a84546110ce565b84611106565b602080601f8311600181146111b3575f841561119c5750858301515b5f19600386901b1c1916600185901b17855561120a565b5f85815260208120601f198616915b828110156111e1578886015182559484019460019091019084016111c2565b50858210156111fe57878501515f19600388901b60f8161c191681555b505060018460011b0185555b505050505050565b606081525f6112246060830186610f62565b6001600160a01b038516602084015282810360408401526112458185610f62565b9695505050505050565b604081525f6112616040830185610f62565b82810360208401526112738185610f62565b95945050505050565b606081525f61128e6060830186610f62565b6001600160a01b039485166020840152929093166040909101529291505056fee2066eed6a21fe010dcfb0fe900bb231316178ab42b606888039bea06e2272e8a26469706673582212204df15cf073157138b9cf27eee2cc08a91527c81662bb7d0bd840e09c27d0b41064736f6c63430008180033",
  "linkReferences": {},
  "deployedLinkReferences": {}
}